:020000042400D6
:10000000009000244D0B0024010A0024070A00245C
:100010000D0A0024130A0024190A0024000000001D
:100020000000000000000000000000001F0A002483
:100030002D0A0024000000003B0A0024490A002485
:100040009D0B00249D0B00249D0B00249D0B002480
:100050009D0B00249D0B00249D0B00249D0B002470
:100060009D0B00249D0B00249D0B00249D0B002460
:100070009D0B00249D0B00249D0B00249D0B002450
:100080009D0B00249D0B00249D0B00249D0B002440
:100090009D0B00249D0B00249D0B00249D0B002430
:1000A0009D0B00249D0B00249D0B00249D0B002420
:1000B0009D0B00249D0B00249D0B00249D0B002410
:1000C0009D0B00249D0B00249D0B00249D0B002400
:1000D0009D0B00249D0B00249D0B00249D0B0024F0
:1000E0009D0B00249D0B0024000000009D0B0024AC
:1000F0009D0B00249D0B00249D0B00249D0B0024D0
:100100009D0B00249D0B00249D0B00249D0B0024BF
:100110009D0B00249D0B00249D0B00249D0B0024AF
:100120009D0B00249D0B00249D0B00249D0B00249F
:100130009D0B00249D0B00249D0B00249D0B00248F
:1001400000000000000000000000000000000000AF
:100150009D0B00249D0B00249D0B00249D0B00246F
:100160009D0B00249D0B00249D0B00249D0B00245F
:100170009D0B00249D0B00249D0B00249D0B00244F
:100180009D0B00249D0B00249D0B00249D0B00243F
:100190009D0B00249D0B00249D0B00249D0B00242F
:1001A0009D0B00249D0B00249D0B002400000000EB
:1001B0009D0B00249D0B00249D0B00249D0B00240F
:1001C0009D0B00249D0B0024000000000000000097
:1001D00000000000000000009D0B00240000000053
:1001E000000000000000000000000000000000000F
:1001F00000000000000000009D0B00249D0B002467
:100200009D0B00249D0B0024000000009D0B00248A
:100210009D0B00249D0B00249D0B00249D0B0024AE
:100220009D0B0024000000009D0B00240000000036
:100230009D0B00249D0B0024000000009D0B00245A
:100240009D0B00249D0B00249D0B00249D0B00247E
:100250009D0B00249D0B00249D0B00249D0B00246E
:100260009D0B00249D0B00249D0B00249D0B00245E
:100270009D0B00249D0B00249D0B0024000000001A
:100280009D0B00249D0B00249D0B00249D0B00243E
:10029000000000009D0B00249D0B00249D0B0024FA
:1002A0009D0B00249D0B00249D0B00249D0B00241E
:1002B0009D0B00249D0B00249D0B00249D0B00240E
:0C02C0009D0B00249D0B00249D0B0024CE
:0402CC007D0300248A
:0402D00059030024AA
:1002D4000090D0030090D003100000000100000043
:1003580010B5054C237833B9044B13B10448AFF3F7
:1003680000800123237010BDE40200240000000077
:100378006445002408B5034B1BB103490348AFF398
:10038800008008BD00000000E80200246445002445
:1003980080B500AF72B600BF00F09EFA62B600BF2B
:1003A8000123184680BD000080B584B000AFF86016
:1003B800B9607A60FB689AB20A4B9B6E9BB2D31AFB
:1003C8009BB2BA6892B21946786800F0A7F803465B
:1003D800002B01D1002300E0012318461037BD4649
:1003E80080BD00BF7C45002480B584B000AFF860B4
:1003F800B9607A60FB689AB20A4B9B6E9BB2D31ABB
:100408009BB2BA6892B21946786800F041F8034680
:10041800002B01D1002300E0012318461037BD4608
:1004280080BD00BF7C45002480B483B000AF7860F5
:100438003960012318460C37BD465DF8047B7047C8
:1004480080B400AF01231846BD465DF8047B7047B1
:1004580080B485B000AFF860B9607A6000231846B0
:100468001437BD465DF8047B704780B485B000AF93
:10047800F860B9607A603B604FF000024FF000030B
:10048800104619461437BD465DF8047B70470000D6
:1004980080B586B004AF78600B467B8013463B80FE
:1004A8007B68002B06D07B88B3F5007F02D23B889F
:1004B800002B01D1002329E07A883B881344B3F547
:1004C800007F01DD002321E001220821114800F00E
:1004D80081FE7B88DB099BB203F002039BB243F0E9
:1004E800A00399B27B88DBB29AB24FF4FA730293F5
:1004F8003B8801937B6800930123074801F028F8A3
:100508000346002B01D0002300E03B88184608373B
:10051800BD4680BD001002580003002480B58EB08F
:1005280004AF78600B467B8013463B807B68002BCA
:1005380006D07B88B3F5007F02D23B88002B01D11F
:10054800002393E07A883B881344B3F5007F01DDEC
:1005580000238BE07B68FB610023BB84002387F8C2
:10056800233000220821434800F034FE7B881B0911
:100578009BB21B017B837B8803F00F03FB847B8B7F
:10058800DB099BB203F002039BB243F0A00399B2CC
:100598007B8BDBB29AB24FF4FA7302931023019368
:1005A80007F1080300930123334800F0D1FF034605
:1005B800002B02D0012387F82330BB8CFA691A4438
:1005C800FB8C127828333B4403F8202CFB8C013336
:1005D800FB84BB8C0133BB847B8801337B803B88E5
:1005E800013B3B80FB8C0F2B02D83B88002BE4D1CE
:1005F8007B8BDB099BB203F002039BB243F0A003A1
:1006080099B27B8BDBB29AB24FF4FA730293102340
:10061800019307F1080300930123174800F084FEB3
:100628000346002B02D0012387F823304FF4FA73D6
:100638006422A021104801F0A5F80346002B02D03F
:10064800012387F823303B88002B03D097F8233009
:10065800002B8BD001220821064800F0BBFD97F83B
:100668002330002B01D0002300E0BB8C184628372C
:10067800BD4680BD001002580003002480B500AFBD
:1006880000F08AFA00F006F800F0B4F800F072F80A
:10069800FEE7000080B59CB000AF07F124034C22B0
:1006A8000021184603F052FF3B1D20220021184666
:1006B80003F04CFF042001F0BDFC00233B602C4BF1
:1006C8009B6923F440432A4A43F480439361284BAF
:1006D8009B6903F440433B603B6800BF244B9B6924
:1006E80003F40053B3F5005FF8D101237B624FF4A4
:1006F8008033BB620223BB640223FB6402233B6595
:100708000F237B650223BB650223FB6502233B663F
:100718000C237B660023BB6640F68633FB6607F135
:100728002403184601F0E0FC0346002B01D000F03A
:10073800D9F83F237B600323BB600023FB600823B9
:100748003B6140237B614023BB614FF48063FB61C5
:1007580040233B623B1D0121184602F09FF80346E7
:10076800002B01D000F0BEF800BF7037BD4680BD39
:100778000048025880B500AF1B4B1C4A1A601A4B40
:100788001B4A5A60184B00229A60174B0122DA6004
:10079800154B00221A61144B00225A61124B002299
:1007A8009A61114B0022DA610F4B00221A620E483F
:1007B80000F02AFD0346002B01D000F093F8002139
:1007C800094801F09FFB0346002B01D000F08AF88E
:1007D8000021054801F0E1FB0346002B01D000F0A1
:1007E80081F800BF80BD00BF00030024005800400E
:1007F800090700C080B58AB000AF07F114030022D2
:100808001A605A609A60DA601A61314BD3F8E030A6
:100818002F4A43F00103C2F8E0302D4BD3F8E03003
:1008280003F001033B613B69294BD3F8E030284AC8
:1008380043F01003C2F8E030254BD3F8E03003F062
:100848001003FB60FB68224BD3F8E030204A43F0EA
:100858000403C2F8E0301E4BD3F8E03003F0040381
:10086800BB60BB681A4BD3F8E030194A43F08003E9
:10087800C2F8E030164BD3F8E03003F080037B6019
:100888007B68134BD3F8E030114A43F00203C2F8F7
:10089800E0300F4BD3F8E03003F002033B603B68D5
:1008A800002208210B4800F095FC08237B610123F6
:1008B800BB610023FB6100233B6207F11403194667
:1008C800044800F0DFFA00BF2837BD4680BD00BFEE
:1008D800004402580010025880B500AFFFF74AFFE5
:1008E80000BF80BD80B400AF72B600BFFEE7000055
:1008F80080B483B000AF0A4BD3F8F430084A43F011
:100908000203C2F8F430064BD3F8F43003F00203C4
:100918007B607B6800BF0C37BD465DF8047B704781
:100928000044025880B5B8B000AF786007F1CC0336
:1009380000221A605A609A60DA601A6107F110039F
:10094800B8220021184603F001FE7B681B68274A7D
:10095800934246D14FF008024FF00003C7E9042341
:100968000023C7F8903007F11003184602F0C6FAC2
:100978000346002B01D0FFF7B5FF1D4BD3F8E0303D
:100988001B4A43F00203C2F8E030194BD3F8E030B9
:1009980003F00203FB60FB684FF44063C7F8CC30F8
:1009A8001223C7F8D0300023C7F8D4300023C7F883
:1009B800D8300423C7F8DC3007F1CC0319460D48BA
:1009C80000F060FA0A4BD3F8E830094A43F4800390
:1009D800C2F8E830064BD3F8E83003F48003BB6074
:1009E800BB6800BFE037BD4680BD00BF005800406F
:1009F800004402580004025880B400AFFEE780B4F7
:100A080000AFFEE780B400AFFEE780B400AFFEE7BA
:100A180080B400AFFEE780B400AF00BFBD465DF80C
:100A2800047B704780B400AF00BFBD465DF8047B0F
:100A3800704780B400AF00BFBD465DF8047B7047C7
:100A480080B500AF00F01AF900BF80BD80B400AFD8
:100A5800344BD3F88830334A43F47003C2F88830F3
:100A6800314B1B6803F00F03062B07D82E4B1B686E
:100A780023F00F032C4A43F0070313602B4B1B682A
:100A88002A4A43F001031360284B00221A61274BBE
:100A98001A682649264B13400B60234B1B6803F04A
:100AA8000803002B07D0204B1B6823F00F031E4AB6
:100AB80043F0070313601D4B00229A611B4B002271
:100AC800DA611A4B00221A62184B1A4A9A62174BBB
:100AD800194ADA62154B194A1A63144B00225A63F1
:100AE800124B164A9A63114B0022DA630F4B134AD2
:100AF8001A640E4B00225A640C4B1B680B4A23F4F1
:100B080080231360094B00221A660D4B43F2D20270
:100B18001A60044B4FF010529A6000BFBD465DF852
:100B2800047B704700ED00E00020005200440258AA
:100B38007FEDF6EA000202020000FF0180020101D7
:100B480000400052DFF834D0FFF780FF0C480D4911
:100B58000D4A002302E0D458C4500433C4188C4210
:100B6800F9D30A4A0A4C002301E013600432A24276
:100B7800FBD303F0C7FCFFF781FD7047009000240A
:100B8800D4020024E4020024D4020024E402002455
:100B980058030024FEE7000080B582B000AF0320B0
:100BA80000F03EF902F030F80246154B9B691B0A2B
:100BB80003F00F031349CB5C03F01F0322FA03F37E
:100BC8007B600F4B9B6903F00F030E4AD35C03F065
:100BD8001F037A6822FA03F30B4A13600B4A7B68F7
:100BE80013600F2000F014F80346002B01D00123F6
:100BF80002E0FFF77DFE002318460837BD4680BD9A
:100C08000044025844460024D8020024D402002498
:100C180080B582B000AF7860154B1B78002B01D1EE
:100C2800012321E0134B1A68114B1B7819464FF426
:100C38007A73B3FBF1F3B2FBF3F3184600F015F93E
:100C48000346002B01D001230EE07B680F2B0AD846
:100C5800002279684FF0FF3000F0EDF8064A7B6813
:100C68001360002300E0012318460837BD4680BD05
:100C7800E0020024D4020024DC02002480B400AF87
:100C8800064B1B781A46064B1B681344044A13602C
:100C980000BFBD465DF8047B704700BFE00200243A
:100CA8005403002480B400AF034B1B681846BD46AC
:100CB8005DF8047B704700BF5403002480B485B0FE
:100CC80000AF78607B6803F00703FB600B4BDB68C1
:100CD800BB60BA684FF6FF031340BB60FB681A029B
:100CE800BB681A43064B1343BB60044ABB68D36016
:100CF80000BF1437BD465DF8047B704700ED00E087
:100D08000000FA0580B400AF044BDB681B0A03F04F
:100D180007031846BD465DF8047B704700ED00E008
:100D280080B483B000AF03463960FB80B7F9063062
:100D3800002B0ADB3B68DAB20C49B7F9063012011E
:100D4800D2B20B4483F800230AE03B68DAB20849C0
:100D5800FB8803F00F03043B1201D2B20B441A764E
:100D680000BF0C37BD465DF8047B704700E100E02A
:100D780000ED00E080B489B000AFF860B9607A6037
:100D8800FB6803F00703FB61FB69C3F10703042B4E
:100D980028BF0423BB61FB690433062B02D9FB6916
:100DA800033B00E000237B614FF0FF32BB6902FA8E
:100DB80003F3DA43BB681A407B699A404FF0FF316E
:100DC8007B6901FA03F3D9437B680B401343184648
:100DD8002437BD465DF8047B7047000080B582B0BB
:100DE80000AF78607B68013BB3F1807F01D30123BA
:100DF8000FE00A4A7B68013B53600F214FF0FF3038
:100E0800FFF78EFF054B00229A60044B07221A60F9
:100E1800002318460837BD4680BD00BF10E000E03B
:100E280080B582B000AF78607868FFF747FF00BFF1
:100E38000837BD4680BD80B586B000AF0346B960AF
:100E48007A60FB81FFF75EFF78617A68B968786934
:100E5800FFF790FF0246B7F90E3011461846FFF724
:100E68005FFF00BF1837BD4680BD80B582B000AFB8
:100E780078607868FFF7B2FF034618460837BD4622
:100E880080BD000080B489B000AF7860396000236D
:100E9800FB61864B7B618CE13B681A680121FB6929
:100EA80001FA03F313403B613B69002B00F07E819C
:100EB8003B685B6803F00303012B05D03B685B6864
:100EC80003F00303022B30D17B689B68BB61FB698D
:100ED8005B00032202FA03F3DB43BA691340BB61E8
:100EE8003B68DA68FB695B0002FA03F3BA691343EB
:100EF800BB617B68BA699A607B685B68BB610122E9
:100F0800FB6902FA03F3DB43BA691340BB613B6830
:100F18005B681B0903F00102FB6902FA03F3BA6973
:100F28001343BB617B68BA695A603B685B6803F02E
:100F38000303032B17D07B68DB68BB61FB695B008D
:100F4800032202FA03F3DB43BA691340BB613B682F
:100F58009A68FB695B0002FA03F3BA691343BB6141
:100F68007B68BA69DA603B685B6803F00303022BAD
:100F780023D1FB69DA087B68083253F82230BB6159
:100F8800FB6903F007039B000F2202FA03F3DB431C
:100F9800BA691340BB613B681A69FB6903F0070330
:100FA8009B0002FA03F3BA691343BB61FB69DA08D1
:100FB8007B680832B96943F822107B681B68BB61FB
:100FC800FB695B00032202FA03F3DB43BA691340AF
:100FD800BB613B685B6803F00302FB695B0002FAD4
:100FE80003F3BA691343BB617B68BA691A603B684B
:100FF8005B6803F44033002B00F0D8802C4BD3F807
:10100800F4302B4A43F00203C2F8F430284BD3F8EB
:10101800F43003F00203FB60FB68264AFB699B0877
:10102800023352F82330BB61FB6903F003039B00D2
:101038000F2202FA03F3DB43BA691340BB617B68F2
:101048001D4A93424AD07B681C4A93422BD07B6846
:101058001B4A934225D07B681A4A93421FD07B686B
:10106800194A934219D07B68184A934213D07B6877
:10107800174A93420DD07B68164A934207D07B6883
:10108800154A934201D1092329E00A2327E00723BF
:1010980025E0062323E0052321E004231FE00323A2
:1010A8001DE002231BE0012319E000BF8000005867
:1010B8000044025800040058000002580004025876
:1010C80000080258000C0258001002580014025878
:1010D80000180258001C0258002402580023FA691C
:1010E80002F0030292009340BA691343BB61384986
:1010F800FB699B080233BA6941F823204FF0B043DB
:101108001B68BB613B69DB43BA691340BB613B6841
:101118005B6803F48013002B03D0BA693B6913435F
:10112800BB614FF0B042BB6913604FF0B0435B68DE
:10113800BB613B69DB43BA691340BB613B685B68D1
:1011480003F40013002B03D0BA693B691343BB6156
:101158004FF0B042BB6953607B695B68BB613B6918
:10116800DB43BA691340BB613B685B6803F4003337
:10117800002B03D0BA693B691343BB617B69BA6929
:101188005A607B691B68BB613B69DB43BA691340E2
:10119800BB613B685B6803F48033002B03D0BA69FA
:1011A8003B691343BB617B69BA691A60FB69013308
:1011B800FB613B681A68FB6922FA03F3002B7FF492
:1011C8006BAE00BF00BF2437BD465DF8047B704797
:1011D8000004005880B483B000AF78600B467B8071
:1011E80013467B707B78002B03D07A887B689A61E2
:1011F80003E07B881A047B689A6100BF0C37BD4600
:101208005DF8047B7047000080B582B000AF78605D
:101218007B68002B01D101237FE07B6893F8413084
:10122800DBB2002B06D17B68002283F84020786867
:10123800FFF778FB7B68242283F841207B681B68D2
:101248001A687B681B6822F001021A607B685A687A
:101258007B681B6822F070621A617B681B689A6859
:101268007B681B6822F400429A607B68DB68012B6C
:1012780007D17B689A687B681B6842F400429A60D1
:1012880006E07B689A687B681B6842F404429A60AF
:101298007B68DB68022B04D17B681B684FF4006213
:1012A8005A607B681B6859687B681A681D4B0B433A
:1012B80053607B681B68DA687B681B6822F400420D
:1012C800DA607B681A697B685B6942EA03017B68BC
:1012D8009B691A027B681B680A43DA607B68D969D4
:1012E8007B681A6A7B681B680A431A607B681B68FC
:1012F8001A687B681B6842F001021A607B6800224A
:101308005A647B68202283F841207B6800221A6394
:101318007B68002283F84220002318460837BD4620
:1013280080BD00BF0080000280B588B002AFF860C1
:10133800084611461A4603467B810B463B811346F5
:10134800FB80FB6893F84130DBB2202B40F0F9803A
:101358003B6A002B02D0BB8C002B05D1FB684FF4F5
:1013680000725A640123EDE0FB6893F84030012BCA
:1013780001D10223E6E0FB68012283F84020FFF751
:1013880091FC78617B690093192301224FF4004195
:10139800F86800F0CBFB0346002B01D00123D1E015
:1013A800FB68212283F84120FB68402283F8422011
:1013B800FB6800225A64FB683A6A5A62FB68BA8C76
:1013C8005A85FB6800225A63F8883A8979897B69CB
:1013D8000193BB6A00930346F86800F0DBFA034602
:1013E800002B05D0FB68002283F840200123A9E0E8
:1013F800FB685B8D9BB2FF2B0ED9FB68FF221A8519
:10140800FB681B8DDAB27989002300934FF0807353
:10141800F86800F045FD0FE0FB685B8D9AB2FB6849
:101428001A85FB681B8DDAB27989002300934FF087
:101438000073F86800F034FD7A69B96AF86800F05A
:10144800C4FB0346002B01D001237BE0FB685B6AE9
:101458001A78FB681B689A62FB685B6A5A1CFB680F
:101468005A62FB685B8D9BB2013B9AB2FB685A8556
:10147800FB681B8D013B9AB2FB681A85FB685B8D84
:101488009BB2002B34D0FB681B8D002B30D17B69BD
:101498000093BB6A00228021F86800F047FB0346EE
:1014A800002B01D001234DE0FB685B8D9BB2FF2B25
:1014B8000ED9FB68FF221A85FB681B8DDAB2798981
:1014C800002300934FF08073F86800F0E9FC0FE008
:1014D800FB685B8D9AB2FB681A85FB681B8DDAB2D4
:1014E8007989002300934FF00073F86800F0D8FC66
:1014F800FB685B8D9BB2002B9ED17A69B96AF8684C
:1015080000F0AAFB0346002B01D001231AE0FB6878
:101518001B682022DA61FB681B685968FB681A6837
:101528000A4B0B405360FB68202283F84120FB687C
:10153800002283F84220FB68002283F84020002321
:1015480000E0022318461837BD4680BD00E800FEBB
:1015580080B588B002AFF860084611461A460346BF
:101568007B810B463B811346FB80FB6893F8413037
:10157800DBB2202B40F0FD803B6A002B02D0BB8CF5
:10158800002B05D1FB684FF400725A640123F1E087
:10159800FB6893F84030012B01D10223EAE0FB6895
:1015A800012283F84020FFF77DFB78617B69009377
:1015B800192301224FF40041F86800F0B7FA0346F6
:1015C800002B01D00123D5E0FB68222283F84120BB
:1015D800FB68402283F84220FB6800225A64FB68BB
:1015E8003A6A5A62FB68BA8C5A85FB6800225A63C9
:1015F800F8883A8979897B690193BB6A0093034625
:10160800F86800F01BFA0346002B05D0FB6800229F
:1016180083F840200123ADE0FB685B8D9BB2FF2B74
:101628000ED9FB68FF221A85FB681B8DDAB279890F
:10163800524B00934FF08073F86800F031FC0FE0D4
:10164800FB685B8D9AB2FB681A85FB681B8DDAB262
:1016580079894A4B00934FF00073F86800F020FC3A
:101668007B690093BB6A00220421F86800F05EFAE7
:101678000346002B01D001237CE0FB681B685A6AF3
:10168800FB685B6AD2B21A70FB685B6A5A1CFB681B
:101698005A62FB681B8D013B9AB2FB681A85FB688E
:1016A8005B8D9BB2013B9AB2FB685A85FB685B8DE8
:1016B8009BB2002B34D0FB681B8D002B30D17B698B
:1016C8000093BB6A00228021F86800F02FFA0346D5
:1016D800002B01D001234DE0FB685B8D9BB2FF2BF3
:1016E8000ED9FB68FF221A85FB681B8DDAB279894F
:1016F800002300934FF08073F86800F0D1FB0FE0EF
:10170800FB685B8D9AB2FB681A85FB681B8DDAB2A1
:101718007989002300934FF00073F86800F0C0FB4C
:10172800FB685B8D9BB2002B9AD17A69B96AF8681D
:1017380000F092FA0346002B01D001231AE0FB685F
:101748001B682022DA61FB681B685968FB681A6805
:101758000B4B0B405360FB68202283F84120FB6849
:10176800002283F84220FB68002283F840200023EF
:1017780000E0022318461837BD4680BD00240080CB
:1017880000E800FE80B58AB002AFF8607A603B607E
:101798000B467B8100237B61FB6893F84130DBB209
:1017A800202B40F0EF80FB681B689B6903F4004323
:1017B800B3F5004F01D10223E5E0FB6893F8403010
:1017C800012B01D10223DEE0FB68012283F84020CF
:1017D800FB68242283F84120FB6800225A64FB68D6
:1017E800DB68012B05D17B89C3F30902684B1343DE
:1017F80004E07B89C3F3090343F42053FA681268B1
:101808005360FFF74FFAB861FB681B689B6903F0E8
:101818002003202B0CBF01230023DBB2FB77FB68DE
:101828001B689B6903F01003102B0CBF01230023D6
:10183800DBB2BB7734E03B68B3F1FF3F1AD0FFF768
:1018480031FA0246BB69D31A3A689A4202D33B6816
:10185800002B0FD1FB68202283F84120FB685B6CCA
:1018680043F02002FB685A64FB68002283F840209A
:10187800012388E0FB681B689B6903F02003202B89
:101888000CBF01230023DBB2FB77FB681B689B6955
:1018980003F01003102B0CBF01230023DBB2BB772E
:1018A800FB7F002B02D1BB7F002BC4D0FB681B68D9
:1018B8009B6903F01003102B1AD0BB6900933B6897
:1018C80000222021F86800F031F90346002B01D0EE
:1018D800012358E0FB681B682022DA61FB6820229C
:1018E80083F84120FB68002283F8402000234AE067
:1018F800BB6900933B6800222021F86800F016F9C4
:101908000346002B01D001233DE0FB681B68102231
:10191800DA61FB681B682022DA617B697A689A427F
:1019280018D1FB681B685A68FB681B6842F4804240
:101938005A60BB6900933B6800222021F86800F0D8
:10194800F5F80346002B01D001231CE0FB681B6857
:101958002022DA617B6901337B617B697A689A426C
:101968003FF63DAFFB68202283F84120FB685B6CA3
:1019780043F02002FB685A64FB68002283F8402089
:10198800012300E0022318462037BD4680BD00BF72
:101998000020000280B586B002AFF8600846114604
:1019A8001A4603467B810B463B811346FB80FB8826
:1019B800DAB27989204B00934FF08073F86800F011
:1019C8006FFAFA69B969F86800F0FFF80346002B66
:1019D80001D001232CE0FB88012B05D13B89DAB229
:1019E800FB681B689A6215E03B891B0A9BB2DAB256
:1019F800FB681B689A62FA69B969F86800F0E5F84B
:101A08000346002B01D0012312E03B89DAB2FB68C0
:101A18001B689A62FB690093BB6900228021F86801
:101A280000F084F80346002B01D0012300E00023D6
:101A380018461037BD4680BD0020008080B586B0AE
:101A480002AFF860084611461A4603467B810B46EA
:101A58003B811346FB80FB88DAB27989204B0093DF
:101A68000023F86800F01CFAFA69B969F86800F010
:101A7800ACF80346002B01D001232CE0FB88012B96
:101A880005D13B89DAB2FB681B689A6215E03B898D
:101A98001B0A9BB2DAB2FB681B689A62FA69B969D9
:101AA800F86800F092F80346002B01D0012312E0F9
:101AB8003B89DAB2FB681B689A62FB690093BB69D1
:101AC80000224021F86800F031F80346002B01D0CD
:101AD800012300E0002318461037BD4680BD00BF33
:101AE8000020008080B483B000AF78607B681B68FA
:101AF8009B6903F00203022B03D17B681B68002259
:101B08009A627B681B689B6903F00103012B07D06D
:101B18007B681B689A697B681B6842F001029A61BE
:101B280000BF0C37BD465DF8047B704780B584B0B4
:101B380000AFF860B9603B601346FB7131E03B6869
:101B4800B3F1FF3F2DD0FFF7ADF80246BB69D31ABA
:101B58003A689A4202D33B68002B22D1FB681B6883
:101B68009A69BB681340BA689A420CBF01230023E4
:101B7800DBB21A46FB799A4213D1FB685B6C43F0DF
:101B88002002FB685A64FB68202283F84120FB6826
:101B9800002283F84220FB68002283F840200123BA
:101BA8000FE0FB681B689A69BB681340BA689A42E1
:101BB8000CBF01230023DBB21A46FB799A42BED040
:101BC800002318461037BD4680BD80B584B000AFED
:101BD800F860B9607A6033E07A68B968F86800F04C
:101BE8007FF80346002B01D0012331E0BB68B3F135
:101BF800FF3F25D0FFF756F802467B68D31ABA682C
:101C08009A4202D3BB68002B1AD1FB681B689B69F8
:101C180003F00203022B13D0FB685B6C43F0200235
:101C2800FB685A64FB68202283F84120FB68002285
:101C380083F84220FB68002283F84020012307E054
:101C4800FB681B689B6903F00203022BC4D10023C5
:101C580018461037BD4680BD80B584B000AFF86027
:101C6800B9607A602FE07A68B968F86800F038F8E7
:101C78000346002B01D001232DE0FFF713F802469D
:101C88007B68D31ABA689A4202D3BB68002B1AD170
:101C9800FB681B689B6903F02003202B13D0FB68AB
:101CA8005B6C43F02002FB685A64FB68202283F8CF
:101CB8004120FB68002283F84220FB68002283F859
:101CC8004020012307E0FB681B689B6903F02003A1
:101CD800202BC8D1002318461037BD4680BD000010
:101CE80080B58AB000AFF860B9607A60002387F8E1
:101CF8002730FB681B689B69BB6100233B627B68DC
:101D0800FB61BB6903F01003002B68D0FB681B68FC
:101D18001022DA6149E0BB68B3F1FF3F45D0FEF716
:101D2800C1FF0246FB69D31ABA689A4202D3BB685C
:101D3800002B3AD1FB681B685B6803F480437B6126
:101D4800FB6893F84230FB74FB681B689B6903F4DB
:101D58000043B3F5004F21D17B69B3F5804F1DD007
:101D6800FB7C202B1AD0FB681B685A68FB681B6831
:101D780042F480425A60FEF795FFF8610EE0FEF7E4
:101D880091FF0246FB69D31A192B07D93B6A43F026
:101D980020033B62012387F8273006E0FB681B68B5
:101DA8009B6903F02003202BE9D1FB681B689B6922
:101DB80003F02003202B03D097F82730002BAAD05C
:101DC80097F82730002B03D1FB681B682022DA61C3
:101DD8003B6A43F004033B62012387F82730FB6822
:101DE8001B689B69BB61BB6903F48073002B0BD034
:101DF8003B6A43F001033B62FB681B684FF4807247
:101E0800DA61012387F82730BB6903F48063002B6C
:101E18000BD03B6A43F008033B62FB681B684FF436
:101E28008062DA61012387F82730BB6903F4007305
:101E3800002B0BD03B6A43F002033B62FB681B6834
:101E48004FF40072DA61012387F8273097F82730BA
:101E5800002B1CD0F868FFF745FEFB681B68596823
:101E6800FB681A680D4B0B405360FB685A6C3B6A61
:101E78001A43FB685A64FB68202283F84120FB68F8
:101E8800002283F84220FB68002283F8402097F85C
:101E9800273018462837BD4680BD00BF00E800FE41
:101EA80080B487B000AFF8607B600B467B81134637
:101EB8007B727B89C3F309027B7A1B0403F47F03DB
:101EC8001A437B681A433B6A134323F000437B6140
:101ED800FB681B685A683B6A5B0D03F48061084B1A
:101EE8000B43DB4302EA0301FB681B687A690A4378
:101EF8005A6000BF1C37BD465DF8047B704700BFC1
:101F0800FF63FF0380B483B000AF786039607B68FB
:101F180093F84130DBB2202B38D17B6893F84030FE
:101F2800012B01D1022332E07B68012283F8402093
:101F38007B68242283F841207B681B681A687B68C9
:101F48001B6822F001021A607B681B681A687B68AC
:101F58001B6822F480521A607B681B6819687B68CA
:101F68001B683A680A431A607B681B681A687B68B2
:101F78001B6842F001021A607B68202283F8412026
:101F88007B68002283F84020002300E002231846E3
:101F98000C37BD465DF8047B704780B485B000AF50
:101FA800786039607B6893F84130DBB2202B39D1F7
:101FB8007B6893F84030012B01D1022333E07B6822
:101FC800012283F840207B68242283F841207B6823
:101FD8001B681A687B681B6822F001021A607B681C
:101FE8001B681B68FB60FB6823F47063FB603B683D
:101FF8001B02FA681343FB607B681B68FA681A6067
:102008007B681B681A687B681B6842F001021A60CB
:102018007B68202283F841207B68002283F84020D7
:10202800002300E0022318461437BD465DF8047B00
:102038007047000080B584B000AF7860294BDB683A
:1020480003F00703062B0AD0264BDB6803F03F0397
:102058007A689A4201D001233FE000233DE0214BFA
:10206800DB6823F03F021F497B681343CB60FEF710
:1020780019FEF86009E0FEF715FE0246FB68D31A60
:10208800B3F57A7F01D9012327E0164B5B6803F487
:102098000053B3F5005FEED17B681E2B08D07B6838
:1020A8002E2B05D07B681D2B02D07B682D2B13D1DE
:1020B800FEF7F8FDF86009E0FEF7F4FD0246FB685C
:1020C800D31AB3F57A7F01D9012306E0054BDB6803
:1020D80003F01103112BEFD1002318461037BD462A
:1020E80080BD00BF0048025880B58CB000AF786052
:1020F8007B68002B01D10123C8E37B681B6803F0D0
:102108000103002B00F08780884B1B6903F038031C
:10211800FB62864B9B6ABB62FB6A102B07D0FB6A8B
:10212800182B10D1BB6A03F00303022B0BD17F4B92
:102138001B6803F40033002B6CD07B685B68002BB2
:1021480068D10123A2E37B685B68B3F5803F06D1C1
:10215800764B1B68754A43F4803313602EE07B6826
:102168005B68002B0CD1714B1B68704A23F48033D9
:1021780013606E4B1B686D4A23F4802313601DE0C7
:102188007B685B68B3F5A02F0CD1684B1B68674A66
:1021980043F480231360654B1B68644A43F480331F
:1021A80013600BE0614B1B68604A23F480331360B3
:1021B8005E4B1B685D4A23F4802313607B685B6871
:1021C800002B13D0FEF76EFD786208E0FEF76AFD7B
:1021D80002467B6AD31A642B01D9032356E3534B77
:1021E8001B6803F40033002BF0D014E0FEF75AFD0F
:1021F800786208E0FEF756FD02467B6AD31A642B24
:1022080001D9032342E3494B1B6803F40033002B35
:10221800F0D100E000BF7B681B6803F00203002BCD
:1022280000F08C80414B1B6903F038033B623F4B45
:102238009B6AFB613B6A002B07D03B6A182B37D19E
:10224800FB6903F00303002B32D1384B1B6803F002
:102258000403002B05D07B68DB68002B01D1012328
:1022680014E3324B1B6823F019027B68DB682F49A3
:1022780013430B60FEF716FD786208E0FEF712FDC7
:1022880002467B6AD31A022B01D90323FEE2274BAD
:102298001B6803F00403002BF0D0244B5B6823F089
:1022A800FE427B681B691B06204913434B6045E0CF
:1022B8007B68DB68002B26D01C4B1B6823F01902B7
:1022C8007B68DB68194913430B60FEF7EBFC786207
:1022D80008E0FEF7E7FC02467B6AD31A022B01D915
:1022E8000323D3E2114B1B6803F00403002BF0D047
:1022F8000E4B5B6823F0FE427B681B691B060B498B
:1023080013434B601AE0094B1B68084A23F001038A
:102318001360FEF7C7FC78620AE0FEF7C3FC0246CA
:102328007B6AD31A022B03D90323AFE20044025875
:10233800964B1B6803F00403002BEED17B681B68E7
:1023480003F01003002B6AD0904B1B6903F038038D
:10235800BB618E4B9B6A7B61BB69082B07D0BB694D
:10236800182B1BD17B6903F00303012B16D1874B74
:102378001B6803F48073002B05D07B68DB69802B16
:1023880001D0012382E2814BDB6823F07C527B6819
:102398001B6A1B067D491343CB6040E07B68DB6901
:1023A800002B23D0794B1B68784A43F080031360D5
:1023B800FEF778FC786208E0FEF774FC02467B6A58
:1023C800D31A022B01D9032360E2704B1B6803F474
:1023D8008073002BF0D06D4BDB6823F07C527B6858
:1023E8001B6A1B0669491343CB6018E0674B1B68DF
:1023F800664A23F080031360FEF754FC786208E015
:10240800FEF750FC02467B6AD31A022B01D903233C
:102418003CE25E4B1B6803F48073002BF0D17B68B1
:102428001B6803F00803002B36D07B685B69002B20
:1024380019D0564B5B6F554A43F001035367FEF7BB
:1024480031FC786208E0FEF72DFC02467B6AD31A5D
:10245800022B01D9032319E24C4B5B6F03F00203F3
:10246800002BF0D018E0494B5B6F484A23F001037A
:102478005367FEF717FC786208E0FEF713FC024684
:102488007B6AD31A022B01D90323FFE13F4B5B6F11
:1024980003F00203002BF0D17B681B6803F02003D4
:1024A800002B36D07B689B69002B19D0374B1B68F3
:1024B800364A43F480531360FEF7F4FB786208E071
:1024C800FEF7F0FB02467B6AD31A022B01D90323DD
:1024D800DCE12E4B1B6803F40053002BF0D018E00E
:1024E8002A4B1B68294A23F480531360FEF7DAFB52
:1024F800786208E0FEF7D6FB02467B6AD31A022B05
:1025080001D90323C2E1214B1B6803F40053002BBC
:10251800F0D17B681B6803F00403002B00F0868071
:102528001B4B1B681A4A43F480731360FEF7BAFB0F
:10253800786208E0FEF7B6FB02467B6AD31A642B82
:1025480001D90323A2E1124B1B6803F48073002B0B
:10255800F0D07B689B68012B06D10C4B1B6F0B4A94
:1025680043F00103136732E07B689B68002B11D1AD
:10257800064B1B6F054A23F001031367034B1B6FC0
:10258800024A23F00403136721E000BF0044025805
:10259800004802587B689B68052B0CD1834B1B6F46
:1025A800824A43F004031367804B1B6F7F4A43F052
:1025B800010313670BE07D4B1B6F7C4A23F001037B
:1025C80013677A4B1B6F794A23F0040313677B6800
:1025D8009B68002B15D0FEF765FB78620AE0FEF7D2
:1025E80061FB02467B6AD31A41F28832934201D9D1
:1025F80003234BE16D4B1B6F03F00203002BEED05E
:1026080014E0FEF74FFB78620AE0FEF74BFB024648
:102618007B6AD31A41F28832934201D9032335E108
:10262800624B1B6F03F00203002BEED17B685B6AE1
:10263800002B00F02A815D4B1B6903F03803182B2F
:1026480000F0BA807B685B6A022B40F09580574B9C
:102658001B68564A23F080731360FEF723FB7862E9
:1026680008E0FEF71FFB02467B6AD31A022B01D94A
:1026780003230BE14D4B1B6803F00073002BF0D1D3
:102688004A4B9A6A4A4B13407A68916A7A68D26AC6
:1026980012010A43454913438B627B681B6B013B5C
:1026A800C3F308027B685B6B013B5B029BB21A4376
:1026B8007B689B6B013B1B0403F4FE031A437B6896
:1026C800DB6B013B1B0603F0FE43384913430B63E6
:1026D800364BDB6A354A23F00103D362334B5A6B1E
:1026E800344B13407A68926CD200304913434B63E1
:1026F8002E4BDB6A23F00C027B681B6C2B491343BF
:10270800CB622A4BDB6A23F002027B685B6C2749A9
:102718001343CB62254BDB6A244A43F48033D362EC
:10272800224BDB6A214A43F40033D3621F4BDB6A36
:102738001E4A43F48023D3621C4BDB6A1B4A43F0D6
:102748000103D362194B1B68184A43F08073136066
:10275800FEF7A8FA786208E0FEF7A4FA02467B6A58
:10276800D31A022B01D9032390E0104B1B6803F006
:102778000073002BF0D088E00C4B1B680B4A23F049
:1027880080731360FEF78EFA786208E0FEF78AFA23
:1027980002467B6AD31A022B01D9032376E0034B46
:1027A8001B6803F00073002BF0D16EE00044025860
:1027B8000CFCFFFF0700FFFF364B9B6A3B61354B64
:1027C8001B6BFB607B685B6A012B31D03B6903F0B4
:1027D80003027B689B6A9A422AD13B691B0903F072
:1027E8003F027B68DB6A9A4222D1FB68C3F3080286
:1027F8007B681B6B013B9A421AD1FB685B0A03F0AA
:102808007F027B685B6B013B9A4211D1FB681B0C12
:1028180003F07F027B689B6B013B9A4208D1FB68FF
:102828001B0E03F07F027B68DB6B013B9A4201D0F1
:1028380001232BE0174B5B6BDB08C3F30C033B61F5
:102848007B689B6C3A699A421FD0124BDB6A114A2B
:1028580023F00103D362FEF725FA786200BFFEF782
:1028680021FA02467B6A9342F9D00A4B5A6B0A4B0B
:1028780013407A68926CD200064913434B63054BA8
:10288800DB6A044A43F00103D36200231846303759
:10289800BD4680BD004402580700FFFF80B586B0E2
:1028A80000AF786039607B68002B01D101239CE17F
:1028B8008A4B1B6803F00F033A689A4210D9874B7A
:1028C8001B6823F00F0285493B6813430B60834B59
:1028D8001B6803F00F033A689A4201D0012384E190
:1028E8007B681B6803F00403002B10D07B681A690F
:1028F8007B4B9B6903F070039A4208D9784B9B691C
:1029080023F070027B681B69754913438B617B68F0
:102918001B6803F00803002B10D07B685A69704BC2
:10292800DB6903F070039A4208D96D4BDB6923F029
:1029380070027B685B696A491343CB617B681B68DB
:1029480003F01003002B10D07B689A69644BDB6995
:1029580003F4E0639A4208D9614BDB6923F4E0622F
:102968007B689B695E491343CB617B681B6803F0F6
:102978002003002B10D07B68DA69594B1B6A03F0DF
:1029880070039A4208D9564B1B6A23F070027B6881
:10299800DB69534913430B627B681B6803F002032E
:1029A800002B10D07B68DA684D4B9B6903F00F034E
:1029B8009A4208D94A4B9B6923F00F027B68DB686F
:1029C800474913438B617B681B6803F00103002BA5
:1029D80055D0434B9B6923F470627B689B684049E0
:1029E80013438B617B685B68022B07D13C4B1B68E8
:1029F80003F40033002B21D10123F6E07B685B68E8
:102A0800032B07D1364B1B6803F00073002B15D13D
:102A18000123EAE07B685B68012B07D1304B1B6818
:102A280003F48073002B09D10123DEE02C4B1B68D3
:102A380003F00403002B01D10123D6E0284B1B69C6
:102A480023F007027B685B68254913430B61FEF797
:102A580029F978610AE0FEF725F902467B69D31A5D
:102A680041F28832934201D90323BEE01C4B1B6913
:102A780003F038027B685B68DB009A42EBD17B6825
:102A88001B6803F00203002B10D07B68DA68144B34
:102A98009B6903F00F039A4208D2114B9B6923F0FC
:102AA8000F027B68DB680E4913438B610B4B1B6875
:102AB80003F00F033A689A4214D2084B1B6823F0BC
:102AC8000F0206493B6813430B60044B1B6803F075
:102AD8000F033A689A4205D0012386E0002000528D
:102AE800004402587B681B6803F00403002B10D0D5
:102AF8007B681A693F4B9B6903F070039A4208D2BE
:102B08003C4B9B6923F070027B681B69394913436E
:102B18008B617B681B6803F00803002B10D07B686F
:102B28005A69344BDB6903F070039A4208D2314B7F
:102B3800DB6923F070027B685B692E491343CB6124
:102B48007B681B6803F01003002B10D07B689A6920
:102B5800284BDB6903F4E0639A4208D2254BDB6912
:102B680023F4E0627B689B6922491343CB617B684D
:102B78001B6803F02003002B10D07B68DA691D4B1B
:102B88001B6A03F070039A4208D21A4B1B6A23F09F
:102B980070027B68DB69174913430B6200F034F855
:102BA8000246144B9B691B0A03F00F031249CB5CC6
:102BB80003F01F0322FA03F33B610E4B9B6903F0FA
:102BC8000F030D4AD35C03F01F033A6922FA03F39B
:102BD8000A4A13600A4A3B6913600A4B1B68184685
:102BE800FEF716F80346FB73FB7B18461837BD46FD
:102BF80080BD00BF0044025844460024D802002487
:102C0800D4020024DC02002480B489B000AFB34BA6
:102C18001B6903F03803182B00F2558101A252F802
:102C280023F000BF912C0024CF2E0024CF2E0024A7
:102C3800CF2E0024CF2E0024CF2E0024CF2E002408
:102C4800CF2E0024B72C0024CF2E0024CF2E002412
:102C5800CF2E0024CF2E0024CF2E0024CF2E0024E8
:102C6800CF2E0024BD2C0024CF2E0024CF2E0024EC
:102C7800CF2E0024CF2E0024CF2E0024CF2E0024C8
:102C8800CF2E0024C32C0024944B1B6803F0200390
:102C9800002B09D0914B1B68DB0803F00303904A13
:102CA80022FA03F3BB6111E18D4BBB610EE18D4B41
:102CB800BB610BE18C4BBB6108E1884B9B6A03F05D
:102CC80003037B61854B9B6A1B0903F03F033B6150
:102CD800824BDB6A03F00103FB60804B5B6BDB0814
:102CE800C3F30C03FA6802FB03F307EE903AF8EE1D
:102CF800677AC7ED027A3B69002B00F0E1807B69B7
:102D0800022B00F083807B69022B00F2A1807B6993
:102D1800002B03D07B69012B56D099E06F4B1B68C1
:102D280003F02003002B2DD06C4B1B68DB0803F04D
:102D380003036B4A22FA03F37B607B6807EE903A41
:102D4800F8EE676A3B6907EE903AF8EE677A86EE26
:102D5800A77A624B1B6BC3F3080307EE903AF8EEB1
:102D6800676A97ED026ADFED615AC6EE257A76EE5C
:102D7800A77AF7EE006A77EEA67A67EE277AC7EDAC
:102D8800077A87E03B6907EE903AF8EE677ADFED5D
:102D9800586A86EEA77A514B1B6BC3F3080307EEFC
:102DA800903AF8EE676A97ED026ADFED505AC6EE80
:102DB800257A76EEA77AF7EE006A77EEA67A67EEBE
:102DC800277AC7ED077A65E03B6907EE903AF8EE97
:102DD800677ADFED486A86EEA77A404B1B6BC3F330
:102DE800080307EE903AF8EE676A97ED026ADFED9E
:102DF8003F5AC6EE257A76EEA77AF7EE006A77EEA6
:102E0800A67A67EE277AC7ED077A43E03B6907EEB3
:102E1800903AF8EE677ADFED386A86EEA77A2F4B9C
:102E28001B6BC3F3080307EE903AF8EE676A97ED59
:102E3800026ADFED2E5AC6EE257A76EEA77AF7EE0D
:102E4800006A77EEA67A67EE277AC7ED077A21E05F
:102E58003B6907EE903AF8EE677ADFED266A86EE70
:102E6800A77A1E4B1B6BC3F3080307EE903AF8EEE4
:102E7800676A97ED026ADFED1D5AC6EE257A76EE8F
:102E8800A77AF7EE006A77EEA67A67EE277AC7ED9B
:102E9800077A00BF114B1B6B5B0A03F07F030133FA
:102EA8003B603B6807EE903AB8EE677AD7ED076A61
:102EB800C6EE877AFCEEE77A17EE903ABB6105E03A
:102EC8000023BB6102E0074BBB6100BFBB6918462A
:102ED8002437BD465DF8047B704700BF00440258A4
:102EE8000090D00300093D0040787D0100000046B5
:102EF8000024744C0024744A20BCBE4B2DE9B04F0A
:102F0800C6B000AFC7F80401002387F817310023C3
:102F180087F81631D7F80431D3E9002302F00064AA
:102F2800002554EA050349D0D7F804315B6EB3F5A0
:102F3800401F2FD0B3F5401F28D8B3F5001F1AD073
:102F4800B3F5001F22D8002B03D0B3F5801F07D09C
:102F58001CE0AB4BDB6AAA4A43F40033D3621AE0A5
:102F6800D7F8043108330221184601F067F90346FF
:102F780087F817310FE0D7F80431283302211846B3
:102F880001F00EFA034687F8173104E0012387F8A9
:102F9800173100E000BF97F81731002B0AD1984B82
:102FA8001B6D23F44011D7F804315B6E944A0B4330
:102FB800136503E097F8173187F81631D7F804310D
:102FC800D3E9002302F480784FF0000958EA090396
:102FD80047D0D7F804319B6D042B2AD801A252F8A8
:102FE80023F000BF013000240F30002425300024D6
:102FF8004330002443300024814BDB6A804A43F489
:103008000033D3621AE0D7F8043108330021184698
:1030180001F014F9034687F817310FE0D7F80431A7
:1030280028330021184601F0BBF9034687F8173109
:1030380004E0012387F8173100E000BF97F8173143
:10304800002B0AD16E4B1B6D23F00701D7F8043112
:103058009B6D6B4A0B43136503E097F8173187F8AC
:103068001631D7F80431D3E9002302F4806A4FF00F
:10307800000B5AEA0B035BD0D7F80431D3F8A4301D
:10308800B3F5200F3BD0B3F5200F34D8B3F5000FBC
:1030980037D0B3F5000F2ED8B3F5C00F33D0B3F542
:1030A800C00F28D8B3F5800F1AD0B3F5800F22D8F7
:1030B800002B03D0B3F5001F07D01CE0504BDB6A90
:1030C8004F4A43F40033D3621EE0D7F80431083383
:1030D8000021184601F0B2F8034687F8173113E0CB
:1030E800D7F8043128330021184601F059F903466E
:1030F80087F8173108E0012387F8173104E000BF8B
:1031080002E000BF00E000BF97F81731002B0BD199
:103118003B4B9B6D23F46001D7F80431D3F8A430FE
:10312800374A0B43936503E097F8173187F8163150
:10313800D7F80431D3E9002302F40063C7F8F83064
:103148000023C7F8FC30D7E93E120B4613435DD085
:10315800D7F80431D3F8A830B3F1A06F3BD0B3F15E
:10316800A06F34D8B3F1806F37D0B3F1806F2ED809
:10317800B3F1407F33D0B3F1407F28D8B3F1007F5B
:103188001AD0B3F1007F22D8002B03D0B3F1807F8F
:1031980007D01CE01A4BDB6A194A43F40033D362A8
:1031A8001EE0D7F8043108330021184601F046F82C
:1031B800034687F8173113E0D7F804312833002184
:1031C800184601F0EDF8034687F8173108E00123A7
:1031D80087F8173104E000BF02E000BF00E000BF3D
:1031E80097F81731002B0DD1054B9B6D23F0E0614B
:1031F800D7F80431D3F8A830014A0B43936505E0AA
:103208000044025897F8173187F81631D7F8043177
:10321800D3E9002302F00073C7F8F0300023C7F8A1
:10322800F430D7E93C120B4613433AD0D7F80431AF
:10323800DB6C302B1FD0302B19D8202B0CD0202B37
:1032480015D8002B19D0102B11D1AA4BDB6AA94A2B
:1032580043F40033D36211E0D7F804310833022174
:10326800184600F0EBFF034687F8173106E0012304
:1032780087F8173102E000BF00E000BF97F8173168
:10328800002B0AD19B4BDB6C23F03001D7F80431BB
:10329800DB6C984A0B43D36403E097F8173187F83F
:1032A8001631D7F80431D3E9002302F48053C7F864
:1032B800E8300023C7F8EC30D7E93A120B4613433D
:1032C80051D0D7F80431DB6DB3F5804F35D0B3F565
:1032D800804F2ED8B3F5405F31D0B3F5405F28D882
:1032E800B3F5005F1AD0B3F5005F22D8002B03D0E6
:1032F800B3F5805F07D01CE07E4BDB6A7D4A43F460
:103308000033D3621CE0D7F8043108330021184693
:1033180000F094FF034687F8173111E0D7F804311D
:1033280028330021184601F03BF8034687F8173187
:1033380006E0012387F8173102E000BF00E000BF74
:1033480097F81731002B0AD16A4B1B6D23F4E04123
:10335800D7F80431DB6D674A0B43136503E097F830
:10336800173187F81631D7F80431D3E9002302F46E
:103378000053C7F8E0300023C7F8E430D7E9381223
:103388000B46134353D0D7F804311B6EB3F5A02F67
:1033980033D0B3F5A02F2CD8B3F5802F2FD0B3F5A9
:1033A800802F26D8B3F5403F2BD0B3F5403F20D827
:1033B800B3F5003F12D0B3F5003F1AD8002B22D046
:1033C800B3F5803F15D1D7F80431083301211846E9
:1033D80000F034FF034687F8173115E0D7F80431B9
:1033E80028330121184600F0DBFF034687F8173120
:1033F8000AE0012387F8173106E000BF04E000BFA8
:1034080002E000BF00E000BF97F81731002B0AD197
:10341800384B1B6D23F4E021D7F804311B6E354A75
:103428000B43136503E097F8173187F81631D7F87F
:103438000431D3E9002302F48043C7F8D8300023CD
:10344800C7F8DC30D7E936120B46134358D0D7F803
:103458000431D3F8AC30B3F1A04F33D0B3F1A04F5F
:103468002CD8B3F1804F2FD0B3F1804F26D8B3F1C9
:10347800405F2BD0B3F1405F20D8B3F1005F12D08A
:10348800B3F1005F1AD8002B22D0B3F1805F15D1B9
:10349800D7F8043108330121184600F0CFFE03465F
:1034A80087F8173115E0D7F8043128330121184679
:1034B80000F076FF034687F817310AE0012387F802
:1034C800173106E000BF04E000BF02E000BF00E0E3
:1034D80000BF97F81731002B0ED1064B9B6D23F0D8
:1034E800E041D7F80431D3F8AC30024A0B43936576
:1034F80006E000BF0044025897F8173187F81631E4
:10350800D7F80431D3E9002302F40043C7F8D030D8
:103518000023C7F8D430D7E934120B46134337D009
:10352800D7F80431DB6EB3F1005F0ED0B3F1005F62
:1035380016D8002B18D0B3F1805F11D1C44BDB6AC9
:10354800C34A43F40033D3620FE0D7F80431083399
:103558000121184600F072FE034687F8173104E08F
:10356800012387F8173100E000BF97F81731002BC7
:103578000AD1B74B1B6D23F04051D7F80431DB6EED
:10358800B34A0B43136503E097F8173187F81631F0
:10359800D7F80431D3E9002302F08073C7F8C830A4
:1035A8000023C7F8CC30D7E932120B46134339D081
:1035B800D7F804319B6C032B1CD801A252F823F0D6
:1035C80005360024D9350024E735002405360024C3
:1035D8009F4BDB6A9E4A43F40033D3620FE0D7F86F
:1035E800043108330221184600F028FE034687F804
:1035F800173104E0012387F8173100E000BF97F87E
:103608001731002B0AD1924BDB6C23F00301D7F85A
:1036180004319B6C8E4A0B43D36403E097F817314F
:1036280087F81631D7F80431D3E9002302F4800370
:10363800C7F8C0300023C7F8C430D7E930120B46AA
:10364800134300F09980834B1B68824A43F48073CC
:103658001360FDF727FBC7F810010BE0FDF722FB0D
:103668000246D7F81031D31A642B03D9032387F8FD
:10367800173105E0774B1B6803F48073002BEDD0FE
:1036880097F81731002B73D1714B1A6FD7F80431A3
:10369800D3F8B030534003F44073002B15D06C4B73
:1036A8001B6F23F44073C7F80C31694B1B6F684AD2
:1036B80043F480331367664B1B6F654A23F48033EA
:1036C8001367634AD7F80C311367D7F80431D3F876
:1036D800B030B3F5807F18D1FDF7E4FAC7F81001D0
:1036E8000DE0FDF7DFFA0246D7F81031D21A41F2A1
:1036F80088339A4203D9032387F8173105E0544BDE
:103708001B6F03F00203002BEBD097F81731002B47
:1037180029D1D7F80431D3F8B03003F44073B3F5A6
:10372800407F0ED14A4B1B6923F47C51D7F80431F2
:10373800D3F8B0301A09484B1340454A0B4313617C
:1037480005E0434B1B69424A23F47C531361404B09
:10375800196FD7F80431D3F8B030C3F30B033C4AE0
:103768000B43136708E097F8173187F8163103E021
:1037780097F8173187F81631D7F80431D3E90023C1
:1037880002F00103C7F8B8300023C7F8BC30D7E906
:103798002E120B46134300F08F80D7F804319B6F2D
:1037A800282B71D801A252F823F000BF99380024C1
:1037B800913800249138002491380024913800244D
:1037C8009138002491380024913800246538002469
:1037D800913800249138002491380024913800242D
:1037E8009138002491380024913800247B38002433
:1037F800913800249138002491380024913800240D
:1038080091380024913800249138002499380024F4
:1038180091380024913800249138002491380024EC
:1038280091380024913800249138002499380024D4
:1038380091380024913800249138002491380024CC
:1038480091380024913800249138002499380024B4
:103858000044025800480258CFFFFF00D7F804314F
:1038680008330121184600F0E9FC034687F81731B0
:103878000FE0D7F8043128330121184600F090FDF5
:10388800034687F8173104E0012387F8173100E071
:1038980000BF97F81731002B0AD1BF4B5B6D23F09F
:1038A8003801D7F804319B6FBB4A0B43536503E0DB
:1038B80097F8173187F81631D7F80431D3E9002380
:1038C80002F00203C7F8B0300023C7F8B430D7E9D4
:1038D8002C120B46134341D0D7F804315B6F052BEC
:1038E80024D801A252F823F03D39002409390024D4
:1038F8001F3900243D3900243D3900243D39002476
:10390800D7F8043108330121184600F097FC034624
:1039180087F817310FE0D7F804312833012118460A
:1039280000F03EFD034687F8173104E0012387F8CD
:10393800173100E000BF97F81731002B0AD1964BDA
:103948005B6D23F00701D7F804315B6F924A0B4394
:10395800536503E097F8173187F81631D7F8043123
:10396800D3E9002302F00403C7F8A8300023C7F8FE
:10397800AC30D7E92A120B46134344D0D7F80431A8
:10398800D3F89030052B25D801A252F823F000BFB8
:10399800E5390024B1390024C7390024E539002469
:1039A800E5390024E5390024D7F80431083301212A
:1039B800184600F043FC034687F817310FE0D7F8A4
:1039C800043128330121184600F0EAFC034687F841
:1039D800173104E0012387F8173100E000BF97F89A
:1039E8001731002B0BD16C4B9B6D23F00701D7F8D7
:1039F8000431D3F89030684A0B43936503E097F895
:103A0800173187F81631D7F80431D3E9002302F0CB
:103A18002003C7F8A0300023C7F8A430D7E928123C
:103A28000B46134355D0D7F80431D3F88C30B3F193
:103A3800A04F33D0B3F1A04F2CD8B3F1804F2FD083
:103A4800B3F1804F26D8B3F1405F2BD0B3F1405F7C
:103A580020D8B3F1005F12D0B3F1005F1AD8002B61
:103A680022D0B3F1805F15D1D7F804310833002193
:103A7800184600F0E3FB034687F8173115E0D7F83E
:103A8800043128330221184600F08AFC034687F8DF
:103A980017310AE0012387F8173106E000BF04E078
:103AA80000BF02E000BF00E000BF97F81731002B0D
:103AB8000BD1394B5B6D23F0E041D7F80431D3F8D3
:103AC8008C30354A0B43536503E097F8173187F874
:103AD8001631D7F80431D3E9002302F04003C7F8C0
:103AE80098300023C7F89C30D7E926120B461343B9
:103AF80058D0D7F80431D3F89830B3F5A05F33D055
:103B0800B3F5A05F2CD8B3F5805F2FD0B3F5805FF5
:103B180026D8B3F5406F2BD0B3F5406F20D8B3F556
:103B2800006F12D0B3F5006F1AD8002B22D0B3F56E
:103B3800806F15D1D7F8043108330021184600F0FA
:103B48007DFB034687F8173115E0D7F80431283391
:103B58000221184600F024FC034687F817310AE0D2
:103B6800012387F8173106E000BF04E000BF02E038
:103B780000BF00E000BF97F81731002B0ED1064BAD
:103B88009B6D23F4E051D7F80431D3F89830024AFA
:103B98000B43936506E000BF0044025897F81731BD
:103BA80087F81631D7F80431D3E9002302F08003EF
:103BB800C7F890300023C7F89430D7E924120B4691
:103BC800134355D0D7F80431D3F89C30B3F5204FC0
:103BD80033D0B3F5204F2CD8B3F5004F2FD0B3F521
:103BE800004F26D8B3F5C04F2BD0B3F5C04F20D81F
:103BF800B3F5804F12D0B3F5804F1AD8002B22D0DE
:103C0800B3F5005F15D1D7F8043108330021184601
:103C180000F014FB034687F8173115E0D7F8043194
:103C280028330221184600F0BBFB034687F81731FA
:103C38000AE0012387F8173106E000BF04E000BF5F
:103C480002E000BF00E000BF97F81731002B0BD14E
:103C5800A04B9B6D23F46041D7F80431D3F89C3016
:103C68009C4A0B43936503E097F8173187F81631A0
:103C7800D7F80431D3E9002302F00803C7F88830E5
:103C88000023C7F88C30D7E922120B4613431ED005
:103C9800D7F80431D3F88030B3F5805F0CD1D7F86A
:103CA800043128330221184600F07AFB0346002B22
:103CB80002D0012387F81631864B5B6D23F44051FF
:103CC800D7F80431D3F88030824A0B435365D7F8CC
:103CD8000431D3E9002302F01003C7F88030002331
:103CE800C7F88430D7E920120B4613431ED0D7F803
:103CF8000431D3F89430B3F5807F0CD1D7F8043170
:103D080028330221184600F04BFB0346002B02D053
:103D1800012387F816316F4B9B6D23F44071D7F858
:103D28000431D3F894306B4A0B439365D7F80431C8
:103D3800D3E9002302F40023BB670023FB67D7E91C
:103D48001E120B4613433ED0D7F80431D3F8A030E7
:103D5800B3F5003F22D0B3F5003F1BD8002B03D0AA
:103D6800B3F5803F0BD015E0D7F8043108330021B4
:103D7800184600F063FA034687F817310FE0D7F8C2
:103D8800043128330221184600F00AFB034687F85D
:103D9800173104E0012387F8173100E000BF97F8D6
:103DA8001731002B0BD14B4B9B6D23F44031D7F8C7
:103DB8000431D3F8A030474A0B43936503E097F8E2
:103DC800173187F81631D7F80431D3E9002302F404
:103DD80080233B6700237B67D7E91C120B461343FC
:103DE8003BD0D7F80431D3F88430B3F5401F1FD047
:103DF800B3F5401F18D8B3F5801F03D0B3F5001FE3
:103E080007D011E0334BDB6A324A43F40033D36204
:103E18000FE0D7F8043128330121184600F0C0FA22
:103E2800034687F8173104E0012387F8173100E0CB
:103E380000BF97F81731002B0BD1264B5B6D23F48D
:103E48004011D7F80431D3F88430224A0B43536524
:103E580003E097F8173187F81631D7F80431D3E91A
:103E6800002302F48033BB660023FB66D7E91A12ED
:103E78000B46134334D0D7F804311B6D002B03D005
:103E8800B3F5803F07D011E0124BDB6A114A43F4C7
:103E98000033D3620EE0D7F8043108330221184604
:103EA80000F0CCF9034687F8173103E0012387F8BF
:103EB800173100BF97F81731002B0DD1054BDB6C7C
:103EC80023F48031D7F804311B6D024A0B43D364C5
:103ED80006E000BF0044025897F8173187F81631FA
:103EE800D7F80431D3E9002302F000533B660023DE
:103EF8007B66D7E918120B4613430CD0D7F8043168
:103F080028330221184600F04BFA0346002B02D052
:103F1800012387F81631D7F80431D3E9002302F4D6
:103F28000033BB650023FB65D7E916120B46134324
:103F380036D0D7F80431DB6FB3F5407F18D0B3F52E
:103F4800407F11D8B3F5007F14D0B3F5007F0BD8AC
:103F5800002B11D0B3F5807F06D1B74BDB6AB64A88
:103F680043F40033D36208E0012387F8173104E0F3
:103F780000BF02E000BF00E000BF97F81731002B38
:103F88000AD1AD4B5B6D23F44071D7F80431DB6F78
:103F9800A94A0B43536503E097F8173187F81631A0
:103FA800D7F80431D3E9002302F480133B650023DA
:103FB8007B65D7E914120B46134309D09E4B1B6D42
:103FC80023F00041D7F804311B6F9B4A0B4313655C
:103FD800D7F80431D3E9002302F40013BB640023AB
:103FE800FB64D7E912120B46134309D0924B1B6DA1
:103FF80023F08071D7F804319B6E8F4A0B43136509
:10400800D7F80431D3E9002302F080433B6400234E
:104018007B64D7E910120B4613430ED0864B1B69FD
:10402800854A23F400431361834B1969D7F8043197
:10403800D3F8B430804A0B431361D7F80431D3E97D
:10404800002302F00043BB630023FB63D7E90E1291
:104058000B46134309D0784BDB6C23F04051D7F85B
:1040680004315B6D744A0B43D364D7F80431D3E948
:10407800002302F400033B6300237B63D7E90C129F
:104088000B4613430AD06C4B5B6D23F44001D7F801
:104098000431D3F88830684A0B435365D7F80431A4
:1040A800D3E900230021B96203F00103FB62D7E9D9
:1040B8000A120B46134311D0D7F8043108330021F4
:1040C800184600F0BBF8034687F8173197F8173100
:1040D800002B03D097F8173187F81631D7F8043139
:1040E800D3E900230021396203F002037B62D7E998
:1040F80008120B46134311D0D7F8043108330121B5
:10410800184600F09BF8034687F8173197F81731DF
:10411800002B03D097F8173187F81631D7F80431F8
:10412800D3E900230021B96103F00403FB61D7E957
:1041380006120B46134311D0D7F804310833022175
:10414800184600F07BF8034687F8173197F81731BF
:10415800002B03D097F8173187F81631D7F80431B8
:10416800D3E900230021396103F008037B61D7E913
:1041780004120B46134311D0D7F804312833002119
:10418800184600F00DF9034687F8173197F81731EC
:10419800002B03D097F8173187F81631D7F8043178
:1041A800D3E900230021B96003F01003FB60D7E9CD
:1041B80002120B46134311D0D7F8043128330121DA
:1041C800184600F0EDF8034687F8173197F81731CD
:1041D800002B03D097F8173187F81631D7F8043138
:1041E800D3E900230021396003F020037B60D7E97D
:1041F80000120B46134311D0D7F80431283302219B
:10420800184600F0CDF8034687F8173197F81731AC
:10421800002B03D097F8173187F8163197F8163125
:10422800002B01D1002300E00123184607F58C7705
:10423800BD46BDE8B08F00BF0044025880B584B0C9
:1042480000AF786039600023FB73534B9B6A03F01F
:104258000303032B01D1012399E04F4B1B684E4AFE
:1042680023F080631360FCF71DFDB86008E0FCF7DD
:1042780019FD0246BB68D31A022B01D9032386E035
:10428800454B1B6803F00063002BF0D1424B9B6A3F
:1042980023F47C327B681B681B033F4913438B6202
:1042A8007B685B68013BC3F308027B689B68013B42
:1042B8005B029BB21A437B68DB68013B1B0403F477
:1042C800FE031A437B681B69013B1B0603F0FE4390
:1042D800314913438B63304BDB6A23F0C0027B68A0
:1042E8005B692D491343CB622B4BDB6A23F0200219
:1042F8007B689B6928491343CB62274BDB6A264AB4
:1043080023F01003D362244BDA6B244B13407A68F2
:10431800D269D20020491343CB631F4BDB6A1E4A84
:1043280043F01003D3623B68002B06D11A4BDB6ABB
:10433800194A43F40023D3620FE03B68012B06D1EE
:10434800154BDB6A144A43F48013D36205E0124B21
:10435800DB6A114A43F40013D3620F4B1B680E4A01
:1043680043F080631360FCF79DFCB86008E0FCF73D
:1043780099FC0246BB68D31A022B01D9032306E035
:10438800054B1B6803F00063002BF0D0FB7B18463D
:104398001037BD4680BD00BF004402580700FFFF2C
:1043A80080B584B000AF786039600023FB73534B4D
:1043B8009B6A03F00303032B01D1012399E04F4BC0
:1043C8001B684E4A23F080531360FCF76BFCB860FF
:1043D80008E0FCF767FC0246BB68D31A022B01D938
:1043E800032386E0454B1B6803F00053002BF0D1F4
:1043F800424B9B6A23F07C727B681B681B053F4914
:1044080013438B627B685B68013BC3F308027B68DC
:104418009B68013B5B029BB21A437B68DB68013BEC
:104428001B0403F4FE031A437B681B69013B1B064C
:1044380003F0FE43314913430B64304BDB6A23F42A
:1044480040627B685B692D491343CB622B4BDB6A67
:1044580023F400727B689B6928491343CB62274B7E
:10446800DB6A264A23F48073D362244B5A6C244BAC
:1044780013407A68D269D200204913434B641F4B1A
:10448800DB6A1E4A43F48073D3623B68002B06D173
:104498001A4BDB6A194A43F48003D3620FE03B6886
:1044A800012B06D1154BDB6A144A43F40003D3628F
:1044B80005E0124BDB6A114A43F08073D3620F4B5D
:1044C8001B680E4A43F080531360FCF7EBFBB8609F
:1044D80008E0FCF7E7FB0246BB68D31A022B01D9B8
:1044E800032306E0054B1B6803F00053002BF0D0B4
:1044F800FB7B18461037BD4680BD00BF00440258FC
:104508000700FFFF70B50D4D0D4C641BA41000266D
:10451800A64209D10B4D0C4C00F020F8641BA410E6
:104528000026A64205D170BD55F8043B98470136D0
:10453800EEE755F8043B98470136F2E7CC02002431
:10454800CC020024CC020024D002002402440346FA
:10455800934200D1704703F8011BF9E7F8B500BF93
:10456800F8BC08BC9E467047F8B500BFF8BC08BC4C
:044578009E467047A4
:10457C00425232344C3034575F54323030300000B9
:10458C00000000000000000000000000000000001F
:10459C00000000000000000000000000000000000F
:1045AC0000000000000000000000000000000000FF
:1045BC0000000000000000000000000000000000EF
:1045CC0000000000000000000000000000000000DF
:1045DC00000000000A0000000000000700020000BC
:1045EC0010000000FF0000000100000000020000AD
:1045FC0000000000000000000000000000000000AF
:10460C00000000000000000000000000000000009E
:10461C00000000000000000000000000000000008E
:10462C00000000000000000000000000000000007E
:08463C00000000000000000076
:104644000000000001020304010203040607080934
:0400000524000B4D7B
:00000001FF
