:020000042400D6
:10000000009000248D080024CD070024CF07002491
:10001000D1070024D3070024D507002400000000E6
:10002000000000000000000000000000D7070024CE
:10003000D907002400000000DB070024DD070024AE
:10004000DD080024DD080024DD080024DD0800248C
:10005000DD080024DD080024DD080024DD0800247C
:10006000DD080024DD080024DD080024DD0800246C
:10007000DD080024DD080024DD080024DD0800245C
:10008000DD080024DD080024DD080024DD0800244C
:10009000DD080024DD080024DD080024DD0800243C
:1000A000DD080024DD080024DD080024DD0800242C
:1000B000DD080024DD080024DD080024DD0800241C
:1000C000DD080024DD080024DD080024DD0800240C
:1000D000DD080024DD080024DD080024DD080024FC
:1000E000DD080024DD08002400000000DD080024F5
:1000F000DD080024DD080024DD080024DD080024DC
:10010000DD080024DD080024DD080024DD080024CB
:10011000DD080024DD080024DD080024DD080024BB
:10012000DD080024DD080024DD080024DD080024AB
:10013000DD080024DD080024DD080024DD0800249B
:1001400000000000000000000000000000000000AF
:10015000DD080024DD080024DD080024DD0800247B
:10016000DD080024DD080024DD080024DD0800246B
:10017000DD080024DD080024DD080024DD0800245B
:10018000DD080024DD080024DD080024DD0800244B
:10019000DD080024DD080024DD080024DD0800243B
:1001A000DD080024DD080024DD0800240000000034
:1001B000DD080024DD080024DD080024DD0800241B
:1001C000DD080024DD08002400000000000000001D
:1001D0000000000000000000DD0800240000000016
:1001E000000000000000000000000000000000000F
:1001F0000000000000000000DD080024DD080024ED
:10020000DD080024DD08002400000000DD080024D3
:10021000DD080024DD080024DD080024DD080024BA
:10022000DD08002400000000DD08002400000000BC
:10023000DD080024DD08002400000000DD080024A3
:10024000DD080024DD080024DD080024DD0800248A
:10025000DD080024DD080024DD080024DD0800247A
:10026000DD080024DD080024DD080024DD0800246A
:10027000DD080024DD080024DD0800240000000063
:10028000DD080024DD080024DD080024DD0800244A
:1002900000000000DD080024DD080024DD08002443
:1002A000DD080024DD080024DD080024DD0800242A
:1002B000DD080024DD080024DD080024DD0800241A
:0C02C000DD080024DD080024DD08002417
:0402CC007D0300248A
:0402D00059030024AA
:1002D4000090D0030090D003010000001000000043
:1003580010B5054C237833B9044B13B10448AFF3F7
:1003680000800123237010BDE40200240000000077
:100378005029002408B5034B1BB103490348AFF3C8
:10038800008008BD00000000E80200245029002475
:1003980008B572B600F020FA00F0C4FA00F0B0F91F
:1003A80000F0B0F962B6012008BD0000064B9B6E54
:1003B80010B5C31A14468AB2204699B200F04AF81A
:1003C800003818BF012010BD68290024064B9B6E19
:1003D80010B5C31A14468AB2204699B200F010F834
:1003E800003818BF012010BD68290024012070477B
:1003F800012070470020704700200021704700004E
:100408007FB50D4614460646E0B1B1F5007F19D216
:10041800C2B18B18B3F5007F14DC012208210B4808
:1004280000F0FEFB4FF4FA73E9090948EAB20096B6
:1004380001F00201CDE9014341F0A001012300F0E0
:100448004DFE00B10024204604B070BD00100258D3
:10045800000300242DE9F04F0D468BB01746824665
:1004680000285FD0B1F5007F5CD2002A5AD08B18E3
:10047800B3F5007F56DC00264FF4FA7BDFF8B48032
:10048800002208212A4800F0CBFBE90910230DF1CE
:10049800180905F0F00201F002010193404601231A
:1004A80041F0A001CDF808B0CDF80090CDE90412D4
:1004B80000F014FE05F00F030446A5EB060CDDE979
:1004C80004121AF80600013F09F80300701CBFB2B5
:1004D8001CFA80F586B298B2ADB20F2802D001336B
:1004E800002FEED110234046CDF808B0CDE9009397
:1004F800012300F019FD04434FF4FA736422E4B2B7
:10050800A0214046003C18BF012400F0C5FE10B9E8
:1005180017B1002CB9D0012401220821044800F0A9
:100528007FFB04B1002630460BB0BDE8F08F00BF5A
:10053800001002580003002400B514228BB00021DB
:100548000DEB020002F0F8F9274B28480821D3F8F0
:10055800E02042F00102C3F8E020D3F8E02002F0E6
:1005680001020092009AD3F8E02042F01002C3F88A
:10057800E020D3F8E02002F010020192019AD3F8AB
:10058800E02042F00402C3F8E020D3F8E02002F0B3
:1005980004020292029AD3F8E02042F08002C3F8E3
:1005A800E020D3F8E02002F080020392039AD3F807
:1005B800E02042F00202C3F8E0200022D3F8E03045
:1005C80003F002030493049B00F02AFB0822012392
:1005D80005A90648CDE905230023CDE9073300F036
:1005E80039FA0BB05DF804FB0044025800100258B9
:1005F800114A124B10B5124CC4E900230023012202
:1006080020462362C4E90232C4E90433C4E906334C
:1006180000F038FC014608B172B6FEE7204600F04B
:10062800D8FE014608B172B6FEE7204600F0F7FE94
:1006380008B172B6FEE710BD00580040090700C0B7
:100648000003002410B59CB04C22002109A802F038
:1006580073F92022002101A802F06EF9042000F0AD
:1006680003FF214A00230093936923F4404343F492
:1006780080439361936903F440430093009B93691B
:100688009C04FCD54FF4803301240F220C20CDE9C3
:1006980009430223CDE912331493CDE91523CDE99B
:1006A80017330023CDE9190340F6863309A81B93B5
:1006B80000F018FF08B172B6FEE73F2203230821B5
:1006C800039001A8CDE9012340234FF48062CDE9CE
:1006D800041321460693CDE9072301F023FA08B154
:1006E80072B6FEE71CB010BD0048025808B500F00D
:1006F80019F9FFF7A7FFFFF71FFFFFF779FFFEE7DD
:10070800FFF71ABFFFF774BF72B6FEE7074B82B058
:10071800D3F8F42042F00202C3F8F420D3F8F430FE
:1007280003F002030193019B02B070470044025892
:1007380010B5B6B004461422002103A802F0FCF854
:10074800B822002108A802F0F7F822681A4B9A424A
:1007580030D10822002308A8CDE9082301F0F8FBCE
:1007680008B1FFF7D1FF154C4FF4406203A91448B4
:10077800D4F8E03043F00203C4F8E030D4F8E030B5
:1007880003F002030193019B1223CDE90323002305
:10079800CDE905330423079300F05CF9D4F8E83079
:1007A80043F48003C4F8E830D4F8E83003F4800355
:1007B8000293029B36B010BD005800400044025816
:1007C80000040258FEE7FEE7FEE7FEE7FEE7704793
:1007D8007047704700F0D4B8224AD2F8883043F402
:1007E8007003C2F88830204A136803F00F03062B01
:1007F80005D8136823F00F0343F0070313601B4B5E
:100808001A6842F001021A6000221A61184A19682F
:100818000A4015491A600A68120705D50A6822F0C5
:100828000F0242F007020A60002212499A61DA6157
:100838001A6299621049D962104919635A63996317
:10084800DA6319645A64196821F4802119601A66F8
:1008580043F2D2020A4B1A604FF01052014B9A60D1
:10086800704700BF00ED00E000200052004402582D
:100878007FEDF6EA000202020000FF01800201019A
:1008880000400052DFF834D0FFF7A6FF0C480D49AE
:100898000D4A002302E0D458C4500433C4188C42D3
:1008A800F9D30A4A0A4C002301E013600432A24239
:1008B800FBD302F01DF8FFF719FF704700900024E2
:1008C800D4020024E4020024D4020024E402002418
:1008D80058030024FEE7000038B50F4B054618788A
:1008E80008B9012038BD4FF47A730C4AB3FBF0F312
:1008F8001068B0FBF3F000F099F804460028F0D136
:100908000F2DEED8024629464FF0FF3000F05CF874
:10091800034B20461D60E5E7DC020024D4020024D6
:10092800E002002410B5032000F03CF801F05AF86A
:100938000F49104A8B69C3F30323D35C03F01F03E9
:10094800D8408B6903F00F03D35C0B4A03F01F03F5
:1009580020FA03F31360094B18600F20FFF7BCFF60
:10096800044618B9FFF7D2FE204610BD0124FBE764
:1009780000440258302A0024D8020024D40200245B
:10098800034A044B11681B780B441360704700BF7F
:1009980054030024DC020024014B1868704700BF90
:1009A8005403002407490302CA6803F4E06322F4ED
:1009B800E0621204120C134343F0BF6343F40033A4
:1009C800CB60704700ED00E0164B30B5DC68C4F32F
:1009D8000224C4F10705231D042D28BF0425062B76
:1009E8004FF0FF338CBF033C002403FA05F50028C1
:1009F80003FA04F321EA050122EA030201FA04F1E9
:100A080041EA02034FEA0313DBB206DB00F1604060
:100A180000F5614080F8003330BD00F00F00024A55
:100A28001354F9E700ED00E014ED00E00138B0F1EF
:100A3800807F0BD24FF0E023054AF0215861002057
:100A480082F82310072298611A61704701207047C5
:100A580000ED00E02DE9F74F0023DFF8C0914FF0DB
:100A6800B0440A6832FA03F502D103B0BDE8F08F4A
:100A78004FF0010E0EFA03FE1EEA020200F0B980E2
:100A88004E684FEA43084FF0030C06F003050CFAD2
:100A980008FC6F1E6FEA0C0C012F34D8876807EA30
:100AA8000C0ACF6807FA08F747EA0A078760476819
:100AB80027EA0E0EC6F300179F4047EA0E07476065
:100AC800C768022D07EA0C0E8F6807FA08F747EA8D
:100AD8000E07C76019D14FEAD30A03F0070B4FF08E
:100AE8000F0E00EB8A0A4FEA8B0BDAF820700EFA29
:100AF8000BFE27EA0E0E0F6907FA0BF747EA0E07F7
:100B0800CAF8207001E0032DDAD1076805FA08F564
:100B180016F4403F07EA0C0747EA0507076068D064
:100B2800D9F8F45023F0030703F0030C4FF00F0E2D
:100B380045F0020507F1B0474FEA8C0CC9F8F450AC
:100B480007F58067D9F8F45005F002050195019D75
:100B58000EFA0CF5D7F8088028EA050E2E4DA842A3
:100B680049D005F58065A84247D005F58065A842BB
:100B780045D005F58065A84243D005F58065A842B3
:100B880041D005F58065A8423FD005F58065A842AB
:100B98003DD005F58065A8423BD005F50065A84223
:100BA8000CBF09250A2505FA0CF516F4801F45EA3D
:100BB8000E05BD606FEA020725680CBF3D4015436E
:100BC80016F4001F256065680CBF3D40154316F4F8
:100BD800003F6560D4F884500CBF3D401543F603D0
:100BE800C4F88450D4F8805054BF3D401543C4F82D
:100BF8008050013335E70025D5E70125D3E70225E5
:100C0800D1E70325CFE70425CDE70525CBE7062562
:100C1800C9E70725C7E700BF00000258004402588B
:100C28000AB1816170470904FBE703689A69910773
:100C380001D500229A629A69D20703D49A6942F0D0
:100C480001029A617047000030B5039DC1F30901A4
:100C580004682B43606843EA0243054A0B4342EAAF
:100C6800555223F0004320EA02000343636030BD7D
:100C7800FF63FF0303682DE9F0419C6905460F46B1
:100C8800164614F0100470D000241022A046DA6131
:100C98002B689A69920662D4B8F1000F36D044F0F6
:100CA800040401202B689A69D60505D54FF4807194
:100CB80044F001040120D961510505D54FF4806144
:100CC80044F008040120D961920550D54FF4007210
:100CD80044F00204DA612846FFF7A7FF2A680120DA
:100CE800536823F0FF7323F48B3323F4FF7323F04B
:100CF800010353606B6C1C4320236C6485F84130FE
:100D0800002385F8423085F8403032E07A1CC0D0A4
:100D1800FFF742FE801BB84201D8002FB8D12B68DC
:100D2800596895F842209869D2B200040AD5480457
:100D380008D4202A06D05A6842F480425A60FFF745
:100D48002BFE06462B689B699906A1D4FFF724FE63
:100D5800801B1928F6D920244FF0010898E7B8F12C
:100D6800000F9CD12022DA6199E720469AE70028F3
:100D7800B1D1BDE8F08170B504460D46164623682A
:100D88009B699B0701D5002070BD32462946204645
:100D9800FFF770FFC0B96A1CF1D0FFF7FDFD801B9B
:100DA800A84201D8002DEAD123689B6913F00203F9
:100DB800E5D1626C84F8403042F02002626420225F
:100DC80084F8412084F842300120DDE72DE9F04124
:100DD800069F0446884616461D462268936938EAE7
:100DE80003030CBF01230023B34201D000201EE0FF
:100DF8006B1CF3D0FFF7D0FDC01BA84201D8002D13
:100E0800EBD123689B6938EA03030CBF0123002355
:100E1800B342E2D1636C012043F0200363642023D2
:100E280084F84130002384F8423084F84030BDE82B
:100E3800F08170B504460D46164623689B699B06EB
:100E480001D5002070BD324629462046FFF712FF23
:100E5800B0B9FFF7A1FD801BA84201D8002DECD145
:100E680023689B6913F02003E7D1626C84F8403053
:100E780042F020026264202284F8412084F8423043
:100E88000120DFE710B5044600284AD090F8413029
:100E980003F0FF021BB980F84020FFF749FC242328
:100EA80084F8413023681A6822F001021A606268E7
:100EB80022F070621A619A6822F400429A60D4E9BA
:100EC8000221012924D142F400429A605A68002084
:100ED80042F0007242F400425A60DA6822F400429A
:100EE800DA60D4E904210A43A16942EA0122DA60FE
:100EF800D4E907210A431A601A6842F001021A600D
:100F08002023606484F84130206384F8420010BDD7
:100F180042F4044202299A60D8D14FF400625A6020
:100F2800D4E70120F3E700002DE9F74F994690F840
:100F3800413004460F46202B1646BDF834A0DDF894
:100F4800388040F0C6800C9B13B1BAF1000F06D16F
:100F58004FF400736364012003B0BDE8F08F90F88C
:100F68004030012B00F0B5804FF0010B80F840B005
:100F7800FFF712FD1923054600905A464FF4004129
:100F88002046FFF723FF0028E5D121235FFA89F2E5
:100F98003946606384F84130402384F842300C9B22
:100FA8006064204663624C4BA4F82AA000934FF07B
:100FB8008073FFF749FE2A4641462046FFF7DBFECD
:100FC80018BBB9F1010F236815D1F6B200228021B0
:100FD80020469E6243460095FFF7F8FEA8B9638D48
:100FE8009BB2FF2B15D8628D4FF00073009092B220
:100FF8002285D2B212E0320A414620469A622A4637
:10100800FFF7B9FE08B92368DFE7002384F840300A
:10101800A1E7FF224FF080730090228539462046D1
:10102800FFF712FE2A4641462046FFF7A4FE002895
:1010380091D1636A226813F8011B91626362638D20
:10104800228D013B013A9BB292B26385638D228562
:101058009BB2B3B1AAB94346802120460095FFF759
:10106800B5FE00287FF477AF638D9BB2FF2B28D99C
:10107800FF224FF080730090228539462046FFF703
:10108800E3FD638D9BB2002BCCD12A464146204616
:10109800FFF7CFFE00287FF45EAF23682021D961D7
:1010A8005A6822F0FF7222F48B3222F4FF7222F087
:1010B80001025A6084F8411084F8400084F8420024
:1010C8004AE7628D4FF00073009092B22285D2B247
:1010D800D3E7022040E700BF002000802DE9F74F4A
:1010E800994690F8413004460F46202B1646BDF825
:1010F80034A0DDF8388040F0C9800C9B13B1BAF1F8
:10110800000F06D14FF400736364012003B0BDE8FB
:10111800F08F90F84030012B00F0B8804FF0010BB1
:1011280080F840B0FFF738FC1923054600905A466E
:101138004FF400412046FFF749FE0028E5D122235D
:101148005FFA89F23946606384F84130402384F8B5
:1011580042300C9B606463624D4BA4F82AA0009354
:1011680003462046FFF770FD2A4641462046FFF712
:1011780002FE20BBB9F1010F236816D1F6B2002296
:10118800402120469E6243460095FFF71FFEB0B9F6
:10119800638D9BB2FF2B3F4B15D8628D00934FF0A8
:1011A800007392B22285D2B212E0320A414620463A
:1011B8009A622A46FFF7DFFD08B92368DEE70023B5
:1011C80084F84030A1E7FF2200934FF08073228516
:1011D80039462046FFF738FD4346002204212046C1
:1011E8000095FFF7F3FD00288FD123685A6A636AD8
:1011F8001A70636A228D0133013A6362638D92B279
:10120800013B22859BB26385638D9BB2B3B1AAB9BA
:101218004346802120460095FFF7D8FD00287FF43B
:1012280074AF638D9BB2FF2B28D9FF224FF08073D8
:101238000090228539462046FFF706FD638D9BB254
:10124800002BC9D12A4641462046FFF7F2FD002867
:101258007FF45BAF23682021D9615A6822F0FF72BE
:1012680022F48B3222F4FF7222F001025A6084F8D1
:10127800411084F8400084F8420047E7628D4FF03F
:101288000073009092B22285D2B2D3E702203DE7E4
:1012980000200080002400802DE9F04F1E4685B014
:1012A800002304469146039390F84130202B40F0E8
:1012B8008E8003689B6913F4004340F0888090F89F
:1012C8004020012A00F08380C1F30907012247F07A
:1012D800007A80F8402024224AF4005A80F84120FD
:1012E8004364E3682268012B0CBF534647F420533C
:1012F8005360FFF751FB804623689D699B69C5F3DE
:101308004015C3F300131D4315D023689A6933466B
:10131800CDF8008012F0100226D120212046FFF7D8
:1013280055FDE8B9202322680546D36184F8413089
:1013380084F8400014E0731CDED0FFF72DFBA0EB0F
:101348000800B04201D8002ED6D12023012584F808
:101358004130636C43F020036364002384F8403019
:10136800284605B0BDE8F08F002220212046FFF76F
:101378002DFD0028F4D1236810224FF0200BDA61EC
:10138800C3F81CB0039A4A4510D15A68594642F42A
:1013980080425A60024633462046CDF80080FFF767
:1013A80015FD0028DCD12368C3F81CB0039B01336A
:1013B8000393039B4B4594D3202384F84130636CFB
:1013C80043F020036364002384F84030C8E7022513
:1013D800C6E710B590F84130202BDCB21DD190F84B
:1013E8004030012B19D0242380F8413003681A6853
:1013F80022F001021A601A6822F480521A601A68F0
:10140800114319601A6842F001021A60002380F83B
:10141800414080F84030184610BD0220FCE710B566
:1014280090F84130202BDCB21CD190F84030012BD1
:1014380018D0242380F8413003681A6822F001028A
:101448001A601A6822F4706242EA012119601A6867
:1014580042F001021A60002380F8414080F84030D1
:10146800184610BD0220FCE770B51D4D0446EB6818
:1014780003F00703062B06D0E86800F03F00001BC6
:1014880018BF012070BDEB6823F03F030343EB60F6
:10149800FFF782FA06466B689B0408D5A4F11D0382
:1014A800012B0CD92D3C012C09D90020EAE7FFF7C4
:1014B80073FA801BB0F57A7FEDD90120E2E7FFF7D8
:1014C8006BFA074D0446EB6803F01103112BECD0BF
:1014D800FFF762FA001BB0F57A7FF4D9EDE700BF99
:1014E80000480258F8B5044608B901207FE00368AF
:1014F800DF0753D423689E0700F1A3802368DA0628
:101508001CD5984B1A69996A02F03802082A07D044
:10151800182A40F0E58001F00302012A40F0E0803B
:101528001B68DB0502D5E369802BDED18D4A216A71
:10153800D36823F07C5343EA0163D3602368190717
:1015480000F1FB8023689A0600F1218123685D077A
:101558001ED5854D2B6843F480732B60FFF71CFA6A
:1015680006462B68DA0540F13781A3687D4D012BCB
:1015780040F039812B6F43F001032B6741F2883724
:10158800FFF70AFA774E0546336F9B0740F1518102
:10159800606A002840F05481002028E0714B1A69E5
:1015A800996A02F03802102A05D0182A0AD101F0E7
:1015B8000302022A06D11B689D039BD56368002B92
:1015C80098D192E76268B2F5803F11D11A6842F467
:1015D80080321A60FFF7E0F9624E054633689803D7
:1015E80088D4FFF7D9F9401B6428F7D90320F8BD40
:1015F8005C4D2B689AB923F480332B602B6823F455
:1016080080232B60FFF7C8F906462B6899037FF5FE
:1016180071AFFFF7C1F9801B6428F6D9E6E7B2F588
:10162800A02F07D143F480232B602B6843F4803329
:101638002B60CFE723F480332B602B6823F48023BF
:10164800F6E7484BE1681A69986A12F0380203D045
:10165800182A21D182071FD11B685B0702D50029F0
:101668003FF443AF3F4D2A6822F019020A432A602B
:10167800FFF792F906462B685F0707D56B68226962
:1016880023F0FE4343EA02636B6037E7FFF784F910
:10169800801B0228EFD9A9E71A6881B122F0190244
:1016A800304D0A431A60FFF777F906462B6858074A
:1016B800E4D4FFF771F9801B0228F7D996E722F0E6
:1016C8000102284E1A60FFF767F905463368590783
:1016D8007FF514AFFFF760F9401B0228F6D985E7BC
:1016E800E269C2B11A681F4D42F080021A60FFF722
:1016F80053F906462B68DF0507D5EB68226A23F005
:101708007C5343EA0263EB6018E7FFF745F9801B57
:101718000228EFD96AE71A68124E22F080021A608E
:10172800FFF73AF905463368D8057FF507AFFFF7A5
:1017380033F9401B0228F6D958E76369094DABB164
:101748006B6F43F001036B67FFF726F906466B6F73
:101758009B073FF5F7AEFFF71FF9801B0228F6D964
:1017680044E700BF00440258004802586B6F23F05A
:1017780001036B67FFF710F906466B6F9F077FF54C
:10178800E1AEFFF709F9801B0228F6D92EE7A36915
:10179800934D83B12B6843F480532B60FFF7FCF81B
:1017A80006462B6898043FF5D1AEFFF7F5F8801B85
:1017B8000228F6D91AE72B6823F480532B60FFF729
:1017C800EBF806462B6899047FF5C0AEFFF7E4F8FE
:1017D800801B0228F6D909E7FFF7DEF8801B64288A
:1017E8007FF6BFAE02E7B3B92B6F41F2883723F01B
:1017F80001032B672B6F23F004032B67FFF7CCF84B
:1018080006462B6F98077FF5C3AEFFF7C5F8801B18
:10181800B842F6D9EAE6052B2B6F03D143F004034F
:101828002B67A7E623F001032B672B6F23F0040334
:10183800A3E6FFF7B1F8401BB8427FF6A5AED5E6A0
:10184800674D2B6903F03803182B7AD02B680228D0
:1018580023F080732B6067D1FFF79EF806462B684C
:1018680099015BD4AB6AA26A23F47C7323F0030367
:101878001343E26A43EA0213AB62636BA26B013B58
:10188800013A5B0212049BB202F4FE021343226B7C
:10189800013AC2F308021343E26B013A120602F05E
:1018A800FE4213432B63EB6A23F00103EB626B6B7D
:1018B800A26C23F47F4323F0F80343EAC2036B636B
:1018C800EB6A226C23F00C031343EB62EB6A626C45
:1018D80023F002031343EB62EB6A43F48033EB62B9
:1018E800EB6A43F40033EB62EB6A43F48023EB6268
:1018F800EB6A43F00103EB622B6843F080732B60C3
:10190800FFF74AF8364D04462B689A013FF544AE76
:10191800FFF742F8001B0228F6D967E6FFF73CF804
:10192800801B02289BD961E6FFF736F804462B682E
:101938009B017FF531AEFFF72FF8001B0228F6D97F
:1019480054E60128AA6A2B6B3FF451AE02F003015A
:10195800A06A81427FF4C9ADC2F30512E16A8A42E6
:101968007FF4C3AD226BC3F30801013A91427FF4BF
:10197800BCAD626BC3F34621013A91427FF4B5AD29
:10198800A26BC3F30641013A91427FF4AEADE26B1C
:10199800C3F30663013A93427FF4A7AD6B6BA26C65
:1019A800C3F3CC039A423FF4F7AD0D4DEB6A23F035
:1019B8000103EB62FEF7F0FF0646FEF7EDFFB042CB
:1019C800FBD06B6BA26C23F47F4323F0F80343EA4C
:1019D800C2036B63EB6A43F00103EB62DCE500BF13
:1019E80000440258484B1A6902F03802102A30B5F0
:1019F80000F08680182A0CD0002A40F083801A68EC
:101A0800424812F0200F03D01B68C3F3C103D8402B
:101A180030BD996A9D6ADC6A15F47C7FC5F30510B0
:101A28005A6BF5D0C2F3CC0204F0010407EE900A19
:101A380001F003016243B7EE006AF8EEE76A012994
:101A480007EE902AFAEEE97A4CD002293CD0002918
:101A580048D11A68920627D519682C4AC1F3C101E2
:101A68001B6BCA40C3F3080307EE102AF8EEC75AE7
:101A780085EEA67A06EE903AF8EEE66A76EEA77A52
:101A880077EE867A204B67EE877A1B6BC3F3462383
:101A9800013307EE103AF8EEC76A87EEA67AFCEE35
:101AA800C77A17EE900AB3E71B6BC3F3080307EE78
:101AB800103AB8EEC77A77EE277A77EE867A9FEDF6
:101AC800146A86EE267ADDE71B6BC3F3080307EE7C
:101AD800103AB8EEC77A77EE277A77EE867A9FEDD6
:101AE8000D6AEEE71B6BC3F3080307EE103AB8EE76
:101AF800C77A77EE277A77EE867A9FED076AE0E76E
:101B0800064885E7064883E7004402580090D0035A
:101B18000024744C20BCBE4B0024744A40787D01DC
:101B280000093D002DE9F0410D46044610B9012099
:101B3800BDE8F081884A136803F00F038B42C0F0B8
:101B4800938023685F0700F19B801E070BD58349AC
:101B58006669C86900F07000864204D9CA6922F033
:101B680070023243CA61D8060BD57C49A669C86998
:101B780000F4E060864204D9CA6922F4E062324384
:101B8800CA6199060BD57549E669086A00F07000C4
:101B9800864204D90A6A22F0700232430A629A071E
:101BA8000BD56E49E668886900F00F00864204D9B3
:101BB8008A6922F00F0232438A61DF076ED42368F4
:101BC8009E0700F1A18064490A6802F00F02AA4248
:101BD80000F2A880580700F1B18019070BD55F49BA
:101BE8006569C86900F07000854204D2CA6922F0AC
:101BF80070022A43CA61DA060BD55849A569C86933
:101C080000F4E060854204D2CA6922F4E0622A4303
:101C1800CA619B060BD5514AE069116A01F070014F
:101C2800884204D2136A23F0700303431362FFF758
:101C3800D9FE4A494A4A8B69C3F30323D35C03F0AC
:101C48001F03D8408B6903F00F03D35C454A03F0A8
:101C58001F0320FA03F31360434B1860434BBDE89E
:101C6800F0411868FEF738BE136823F00F030B43E2
:101C78001360136803F00F038B427FF458AF60E7DB
:101C880036492669886900F0700086427FF65DAFA4
:101C98008A6922F0700232438A6156E72F4BA168A5
:101CA8009A6922F470620A439A6162681B68022A80
:101CB8001DD113F4003F3FF43AAF284E41F2883863
:101CC800336923F0070313433361FEF765FE0746C4
:101CD8003369626803F03803B3EBC20F3FF46FAFA8
:101CE800FEF75AFEC01B4045F2D9032020E7032A1D
:101CF80002D113F0007FDEE7012A02D113F4807FBE
:101D0800D9E713F0040FD6E71449E668886900F0AC
:101D18000F008642BFF457AF8A6922F00F023243A0
:101D28008A6150E70A6822F00F022A430A600A68AB
:101D380002F00F02AA427FF4FAAE4BE70749256981
:101D4800886900F070008542BFF447AF8A6922F0C5
:101D580070022A438A6140E700200052004402587A
:101D6800302A0024D8020024D4020024E0020024EF
:101D7800F8B53A4C06460D46A36A03F00303032B55
:101D880069D0236823F080632360FEF705FE0746C9
:101D980023681A014BD4A36A326823F47C3343EADC
:101DA8000233A362B368F268013B013A5B02120492
:101DB8009BB202F4FE0213437268013AC2F30802AE
:101DC80013433269013A120602F0FE421343A36339
:101DD800E36A726923F0C0031343E362E36AB269FA
:101DE80023F020031343E362E36A23F01003E36262
:101DF800E36BF26923F47F4323F0F80343EAC20359
:101E0800E363E36A43F01003E362E36AB5B943F4BA
:101E18000023E362114C236843F080632360FEF7DC
:101E2800BBFD054623681B010FD5002005E0FEF722
:101E3800B3FDC01B0228ABD90320F8BD012D0CBF90
:101E480043F4801343F40013E3E7FEF7A5FD401BBA
:101E58000228E7D9F0E70120EFE700BF0044025865
:101E6800F8B53A4C06460D46A36A03F00303032B64
:101E780069D0236823F080532360FEF78DFD074661
:101E880023689A004BD4A36A326823F07C7343EA30
:101E98000253A362B368F268013B013A5B02120481
:101EA8009BB202F4FE0213437268013AC2F30802BD
:101EB80013433269013A120602F0FE4213432364C7
:101EC800E36A726923F440631343E362E36AB26925
:101ED80023F400731343E362E36A23F48073E36239
:101EE800636CF26923F47F4323F0F80343EAC203E7
:101EF8006364E36A43F48073E362E36AB5B943F465
:101F08008003E362114C236843F080532360FEF79B
:101F180043FD054623689B000FD5002005E0FEF72A
:101F28003BFDC01B0228ABD90320F8BD012D0CBF17
:101F380043F4000343F08073E3E7FEF72DFD401BF5
:101F48000228E7D9F0E70120EFE700BF0044025874
:101F58002DE9F843036805461C0103F0006609D51E
:101F6800436EB3F5001F2CD011D8E3B1B3F5801F31
:101F78001FD001262B68D80540F1D880AB6D042B03
:101F880000F2D380DFE803F02229CB272700B3F53E
:101F9800401FEED1AB4A0026696E136D23F440133F
:101FA8000B431365E6E7A74AD36A43F40033D362C9
:101FB800F0E702210830FFF7DBFE06460028D9D1FA
:101FC800E8E702212830FFF74BFFF6E79D4AD36A7E
:101FD80043F40033D362344605E0002105F10800DC
:101FE800FFF7C6FE0446002C40F0A280954AA96D72
:101FF800136D23F007030B4313652B68590510D5A0
:10200800D5F8A430B3F5800F00F0B48000F29280C8
:10201800002B00F0A280B3F5001F00F0A480012679
:1020280034462B681A0510D5D5F8A830B3F1007FCF
:1020380000F0C88000F2A680002B00F0B680B3F153
:10204800807F00F0B880012634462B689B010DD5AF
:10205800EB6C202B00F0D08000F2BC80002B00F04D
:10206800BC80102B00F0C280012634462B68DF04A8
:102078000FD5EB6DB3F5005F00F0E68000F2C58088
:10208800002B00F0D280B3F5805F00F0D4800126E9
:1020980034462B6898040FD52B6EB3F5003F00F03B
:1020A800F48000F2D980002B00F0DF80B3F5803F88
:1020B80000F0E480012634462B68590410D5D5F881
:1020C800AC30B3F1005F00F0028100F2E680002B33
:1020D80000F0EC80B3F1805F00F0F2800126344616
:1020E8002B681A040DD5EB6EB3F1805F00F0F78012
:1020F800B3F1005F00F00181002B00F0F5800126AC
:1021080034462B68DB0140F10F81AB6C032B00F2E6
:102118005081DFE813F00001FB00470100010021B6
:1021280005F12800FFF79CFE5CE70126344664E7CA
:10213800264662E723F40012B2F5000F03D0B3F588
:10214800C00F7FF46CAFDCB93E4AD5F8A410936D8C
:1021580023F460030B43936563E73A4AD36A43F475
:102168000033D362EFE7002105F10800FFF700FE16
:102178000446E8E7002105F12800FFF771FEF7E7BC
:1021880026464EE723F08072B2F1806F03D0B3F198
:10219800407F7FF458AFDCB92A4AD5F8A810936D70
:1021A80023F0E0630B4393654FE7264AD36A43F471
:1021B8000033D362EFE7002105F10800FFF7D8FDEF
:1021C8000446E8E7002105F12800FFF749FEF7E794
:1021D80026463AE7302B7FF447AFA4B9194AE96C91
:1021E800D36C23F030030B43D3643FE7154AD36A1B
:1021F80043F40033D362F0E7022105F10800FFF74A
:10220800B7FD0446E9E7264630E7B3F5405F03D05B
:10221800B3F5804F7FF43BAFE4B90A4AE96D136D1B
:1022280023F4E0430B43136533E7064AD36A43F4C8
:102238000033D362F0E7002105F10800FFF798FDAD
:102248000446E9E700440258002105F12800FFF799
:1022580007FEF5E726461CE723F48032B2F5802F07
:1022680003D0B3F5403F7FF425AFA4B9924A296E55
:10227800136D23F4E0230B4313651DE7012105F1DA
:102288000800FFF775FD0446EFE7012105F1280076
:10229800FFF7E6FDF7E726460EE723F08052B2F196
:1022A800804F03D0B3F1405F7FF418AFACB9824AD6
:1022B800D5F8AC10936D23F0E0430B4393650FE71B
:1022C800012105F10800FFF753FD0446EEE701215F
:1022D80005F12800FFF7C4FDF7E7264600E7764A30
:1022E800D36A43F40033D36274B9734AE96E136D49
:1022F80023F040530B43136503E7012105F1080060
:10230800FFF736FD0446EFE72646FAE66A4AD36A3F
:1023180043F40033D362002C4ED1674AA96CD36CC6
:1023280023F003030B43D3642B685F024ED5634F3E
:102338003B6843F480733B60FEF72EFB80463B68A6
:10234800D8053BD5002C6DD15B4BD5F8B0001A6F82
:10235800424012F4407F0BD01A6F196F22F440727A
:1023680041F480311967196F21F4803119671A67B0
:10237800B0F5807F41D0D5F8B0304F4903F44072B2
:10238800B2F5407F4AD108694D4A20F47C5002EAF0
:10239800131202430A61C3F30B03474A116F0B433D
:1023A800136713E0022105F10800FFF7E1FC04467A
:1023B800B1E701263446B7E72646B5E7FEF7ECFA5B
:1023C800A0EB08006428BAD9032634462B68DA073C
:1023D80008D5AB6F102B3DD026D85BB3082B32D075
:1023E800012634462B689B074AD56B6F052B5DD8B1
:1023F800DFE803F03E38563E3E3EFEF7CDFADFF802
:10240800B880074641F28839D8F870309907B2D4B5
:10241800FEF7C2FAC01B4845F6D9D5E70A6922F487
:102428007C52B7E72646D1E723F00802202A01D0DC
:10243800182BD5D1A4B9204AA96F536D23F03803BE
:102448000B435365CEE7012105F10800FFF790FC27
:102458000446EFE7012105F12800FFF701FDF7E742
:102468002646BFE7012105F10800FFF781FC044675
:10247800FCB9114A696F536D23F007030B43536589
:102488002B685F072FD5D5F89030052B00F27381A4
:10249800DFE813F01E0018006B011E001E001E006E
:1024A800012105F12800FFF7DBFCE0E701263446AF
:1024B800E6E72646E4E700BF004402580048025811
:1024C800CFFFFF00012105F10800FFF751FC04468A
:1024D800002C40F05381AA4AD5F89010936D23F050
:1024E80007030B4393652B68980610D5D5F88C30F5
:1024F800B3F1005F00F0608100F24481002B00F02E
:102508004A81B3F1805F00F05081012634462B6880
:10251800590610D5D5F89830B3F5006F00F06E81E4
:1025280000F25281002B00F05881B3F5806F00F063
:102538005E81012634462B681A0610D5D5F89C30E2
:10254800B3F5804F00F07C8100F26081002B00F031
:102558006681B3F5005F00F06C81012634462B6874
:102568001B0714D5D5F88030B3F5805F07D1022159
:1025780005F12800FFF774FC002818BF0126804ADF
:10258800D5F88010536D23F440530B4353652B68E3
:10259800DF0614D5D5F89430B3F5807F07D1022132
:1025A80005F12800FFF75CFC002818BF0126744AD3
:1025B800D5F89410936D23F440730B4393652B68FF
:1025C80018031BD5D5F8A010B1F5803F00F0408165
:1025D800B1F5003F07D0002940F0408105F108001F
:1025E800FFF7C6FB0446002C40F03B81644AD5F84F
:1025F800A010936D23F440330B4393652B68590364
:102608001CD5D5F88430B3F5001F00F02C81B3F544
:10261800401F08D0B3F5801F40F02C81584AD36A78
:1026280043F40033D362002C40F02781544AD5F894
:102638008410536D23F440130B4353652B68DA035E
:1026480009D52B6D002B00F01A81B3F5803F00F0FF
:102658002481012634462B689B0007D5022105F109
:102668002800FFF7FDFB002818BF0126D5E9003137
:102678009F030AD5E86FB0F5807F00F0258100F24E
:102688001581002800F018810126DC0206D53C4897
:102698002C6F026D22F0004222430265980206D593
:1026A8003748AC6E026D22F08072224302655A00F0
:1026B80009D5334A106920F4004010611069D5F833
:1026C800B44020431061002B06DA2D486C6DC26CB3
:1026D80022F040522243C2641B0207D5284AD5F88B
:1026E8008800536D23F4400303435365CF0707D590
:1026F800002105F10800FFF73BFB002818BF06463C
:102708006B689C0707D5012105F10800FFF730FB2E
:10271800002818BF06466B68580707D5022105F13F
:102728000800FFF725FB002818BF06466B68190745
:1027380007D5002105F12800FFF792FB002818BFF4
:1027480006466B68DA0607D5012105F12800FFF770
:1027580087FB002818BF06466B689B0600F1BC8003
:10276800301E18BF0120BDE8F883012105F12800BB
:10277800FFF776FBABE601263446B4E62646B2E61A
:102788000044025823F08052B2F1804F03D0B3F1D5
:10279800405F7FF4BAAEACB9544AD5F88C10536D8B
:1027A80023F0E0430B435365B1E6002105F108002F
:1027B800FFF7DEFA0446EEE7022105F12800FFF7ED
:1027C8004FFBF7E72646A2E623F48062B2F5805F66
:1027D80003D0B3F5406F7FF4ACAEACB9434AD5F83B
:1027E8009810936D23F4E0530B439365A3E60021FF
:1027F80005F10800FFF7BCFA0446EEE7022105F1EF
:102808002800FFF72DFBF7E7264694E623F400524D
:10281800B2F5004F03D0B3F5C04F7FF49EAEACB90C
:10282800324AD5F89C10936D23F460430B439365AB
:1028380095E6002105F10800FFF79AFA0446EEE74D
:10284800022105F12800FFF70BFBF7E7264686E68D
:10285800022105F12800FFF703FBC3E601263446F1
:10286800CCE62646CAE6012105F12800FFF7F8FA6A
:102878000446D8E601263446E0E62646DEE61B4A4C
:10288800D36A43F40033D36274B9184A296DD36C00
:1028980023F480330B43D364DDE6022105F10800FD
:1028A800FFF766FA0446EFE72646D4E620F480727E
:1028B800B2F5007F7FF4E8AE64B90C4C626D22F487
:1028C800407202436265E0E6084FFA6A42F4003259
:1028D800FA62F1E72646D8E6022105F12800FFF75B
:1028E800BFFA00283FF43CAF01203CE700440258FF
:1028F80070B50D4D0D4C641BA4100026A64209D1DD
:102908000B4D0C4C00F020F8641BA4100026A642C6
:1029180005D170BD55F8043B98470136EEE755F8E8
:10292800043B98470136F2E7CC020024CC0200248D
:10293800CC020024D002002402440346934200D172
:10294800704703F8011BF9E7F8B500BFF8BC08BCED
:102958009E467047F8B500BFF8BC08BC9E46704755
:10296800425232344C3034575F54323030300000E9
:10297800000000000000000000000000000000004F
:10298800000000000000000000000000000000003F
:10299800000000000000000000000000000000002F
:1029A800000000000000000000000000000000001F
:1029B800000000000000000000000000000000000F
:1029C800000000000A0000000000000700020000EC
:1029D80010000000FF0000000100000000020000DD
:1029E80000000000000000000000000000000000DF
:1029F80000000000000000000000000000000000CF
:102A080000000000000000000000000000000000BE
:102A180000000000000000000000000000000000AE
:082A28000000000000000000A6
:102A30000000000001020304010203040607080964
:040000052400088D3E
:00000001FF
